{
  "_format": "hh-sol-artifact-1",
  "contractName": "FlemVotes",
  "sourceName": "contracts/FlemVotes.sol",
  "abi": [
    {
      "inputs": [],
      "stateMutability": "nonpayable",
      "type": "constructor"
    },
    {
      "anonymous": false,
      "inputs": [
        {
          "indexed": true,
          "internalType": "address",
          "name": "owner",
          "type": "address"
        },
        {
          "indexed": true,
          "internalType": "address",
          "name": "approved",
          "type": "address"
        },
        {
          "indexed": true,
          "internalType": "uint256",
          "name": "tokenId",
          "type": "uint256"
        }
      ],
      "name": "Approval",
      "type": "event"
    },
    {
      "anonymous": false,
      "inputs": [
        {
          "indexed": true,
          "internalType": "address",
          "name": "owner",
          "type": "address"
        },
        {
          "indexed": true,
          "internalType": "address",
          "name": "operator",
          "type": "address"
        },
        {
          "indexed": false,
          "internalType": "bool",
          "name": "approved",
          "type": "bool"
        }
      ],
      "name": "ApprovalForAll",
      "type": "event"
    },
    {
      "anonymous": false,
      "inputs": [
        {
          "indexed": true,
          "internalType": "address",
          "name": "previousOwner",
          "type": "address"
        },
        {
          "indexed": true,
          "internalType": "address",
          "name": "newOwner",
          "type": "address"
        }
      ],
      "name": "OwnershipTransferred",
      "type": "event"
    },
    {
      "anonymous": false,
      "inputs": [
        {
          "indexed": false,
          "internalType": "address",
          "name": "account",
          "type": "address"
        }
      ],
      "name": "Paused",
      "type": "event"
    },
    {
      "anonymous": false,
      "inputs": [
        {
          "indexed": true,
          "internalType": "address",
          "name": "from",
          "type": "address"
        },
        {
          "indexed": true,
          "internalType": "address",
          "name": "to",
          "type": "address"
        },
        {
          "indexed": true,
          "internalType": "uint256",
          "name": "tokenId",
          "type": "uint256"
        }
      ],
      "name": "Transfer",
      "type": "event"
    },
    {
      "anonymous": false,
      "inputs": [
        {
          "indexed": false,
          "internalType": "address",
          "name": "account",
          "type": "address"
        }
      ],
      "name": "Unpaused",
      "type": "event"
    },
    {
      "inputs": [
        {
          "internalType": "address",
          "name": "to",
          "type": "address"
        },
        {
          "internalType": "uint256",
          "name": "amount",
          "type": "uint256"
        }
      ],
      "name": "_awardReputation",
      "outputs": [],
      "stateMutability": "nonpayable",
      "type": "function"
    },
    {
      "inputs": [
        {
          "internalType": "uint256",
          "name": "timeElapsed",
          "type": "uint256"
        }
      ],
      "name": "_expireTokens",
      "outputs": [],
      "stateMutability": "nonpayable",
      "type": "function"
    },
    {
      "inputs": [
        {
          "internalType": "address",
          "name": "to",
          "type": "address"
        },
        {
          "internalType": "uint256",
          "name": "tokenId",
          "type": "uint256"
        }
      ],
      "name": "approve",
      "outputs": [],
      "stateMutability": "nonpayable",
      "type": "function"
    },
    {
      "inputs": [
        {
          "internalType": "address",
          "name": "to",
          "type": "address"
        }
      ],
      "name": "awardReputation",
      "outputs": [],
      "stateMutability": "nonpayable",
      "type": "function"
    },
    {
      "inputs": [
        {
          "internalType": "address",
          "name": "owner",
          "type": "address"
        }
      ],
      "name": "balanceOf",
      "outputs": [
        {
          "internalType": "uint256",
          "name": "",
          "type": "uint256"
        }
      ],
      "stateMutability": "view",
      "type": "function"
    },
    {
      "inputs": [
        {
          "internalType": "uint256",
          "name": "tokenId",
          "type": "uint256"
        }
      ],
      "name": "burn",
      "outputs": [],
      "stateMutability": "nonpayable",
      "type": "function"
    },
    {
      "inputs": [],
      "name": "expireTokens",
      "outputs": [],
      "stateMutability": "nonpayable",
      "type": "function"
    },
    {
      "inputs": [
        {
          "internalType": "uint256",
          "name": "tokenId",
          "type": "uint256"
        }
      ],
      "name": "getApproved",
      "outputs": [
        {
          "internalType": "address",
          "name": "",
          "type": "address"
        }
      ],
      "stateMutability": "view",
      "type": "function"
    },
    {
      "inputs": [
        {
          "internalType": "uint256",
          "name": "tokenId",
          "type": "uint256"
        }
      ],
      "name": "getTimestamp",
      "outputs": [
        {
          "internalType": "uint256",
          "name": "",
          "type": "uint256"
        }
      ],
      "stateMutability": "view",
      "type": "function"
    },
    {
      "inputs": [
        {
          "internalType": "address",
          "name": "owner",
          "type": "address"
        },
        {
          "internalType": "address",
          "name": "operator",
          "type": "address"
        }
      ],
      "name": "isApprovedForAll",
      "outputs": [
        {
          "internalType": "bool",
          "name": "",
          "type": "bool"
        }
      ],
      "stateMutability": "view",
      "type": "function"
    },
    {
      "inputs": [
        {
          "internalType": "address",
          "name": "owner",
          "type": "address"
        }
      ],
      "name": "isOwner",
      "outputs": [
        {
          "internalType": "bool",
          "name": "",
          "type": "bool"
        }
      ],
      "stateMutability": "view",
      "type": "function"
    },
    {
      "inputs": [],
      "name": "name",
      "outputs": [
        {
          "internalType": "string",
          "name": "",
          "type": "string"
        }
      ],
      "stateMutability": "view",
      "type": "function"
    },
    {
      "inputs": [],
      "name": "owner",
      "outputs": [
        {
          "internalType": "address",
          "name": "",
          "type": "address"
        }
      ],
      "stateMutability": "view",
      "type": "function"
    },
    {
      "inputs": [
        {
          "internalType": "uint256",
          "name": "tokenId",
          "type": "uint256"
        }
      ],
      "name": "ownerOf",
      "outputs": [
        {
          "internalType": "address",
          "name": "",
          "type": "address"
        }
      ],
      "stateMutability": "view",
      "type": "function"
    },
    {
      "inputs": [],
      "name": "pause",
      "outputs": [],
      "stateMutability": "nonpayable",
      "type": "function"
    },
    {
      "inputs": [],
      "name": "paused",
      "outputs": [
        {
          "internalType": "bool",
          "name": "",
          "type": "bool"
        }
      ],
      "stateMutability": "view",
      "type": "function"
    },
    {
      "inputs": [],
      "name": "renounceOwnership",
      "outputs": [],
      "stateMutability": "nonpayable",
      "type": "function"
    },
    {
      "inputs": [
        {
          "internalType": "address",
          "name": "to",
          "type": "address"
        }
      ],
      "name": "safeMint",
      "outputs": [],
      "stateMutability": "nonpayable",
      "type": "function"
    },
    {
      "inputs": [
        {
          "internalType": "address",
          "name": "from",
          "type": "address"
        },
        {
          "internalType": "address",
          "name": "to",
          "type": "address"
        },
        {
          "internalType": "uint256",
          "name": "tokenId",
          "type": "uint256"
        }
      ],
      "name": "safeTransferFrom",
      "outputs": [],
      "stateMutability": "nonpayable",
      "type": "function"
    },
    {
      "inputs": [
        {
          "internalType": "address",
          "name": "from",
          "type": "address"
        },
        {
          "internalType": "address",
          "name": "to",
          "type": "address"
        },
        {
          "internalType": "uint256",
          "name": "tokenId",
          "type": "uint256"
        },
        {
          "internalType": "bytes",
          "name": "_data",
          "type": "bytes"
        }
      ],
      "name": "safeTransferFrom",
      "outputs": [],
      "stateMutability": "nonpayable",
      "type": "function"
    },
    {
      "inputs": [
        {
          "internalType": "address",
          "name": "operator",
          "type": "address"
        },
        {
          "internalType": "bool",
          "name": "approved",
          "type": "bool"
        }
      ],
      "name": "setApprovalForAll",
      "outputs": [],
      "stateMutability": "nonpayable",
      "type": "function"
    },
    {
      "inputs": [
        {
          "internalType": "bytes4",
          "name": "interfaceId",
          "type": "bytes4"
        }
      ],
      "name": "supportsInterface",
      "outputs": [
        {
          "internalType": "bool",
          "name": "",
          "type": "bool"
        }
      ],
      "stateMutability": "view",
      "type": "function"
    },
    {
      "inputs": [],
      "name": "symbol",
      "outputs": [
        {
          "internalType": "string",
          "name": "",
          "type": "string"
        }
      ],
      "stateMutability": "view",
      "type": "function"
    },
    {
      "inputs": [
        {
          "internalType": "uint256",
          "name": "index",
          "type": "uint256"
        }
      ],
      "name": "tokenByIndex",
      "outputs": [
        {
          "internalType": "uint256",
          "name": "",
          "type": "uint256"
        }
      ],
      "stateMutability": "view",
      "type": "function"
    },
    {
      "inputs": [
        {
          "internalType": "address",
          "name": "owner",
          "type": "address"
        },
        {
          "internalType": "uint256",
          "name": "index",
          "type": "uint256"
        }
      ],
      "name": "tokenOfOwnerByIndex",
      "outputs": [
        {
          "internalType": "uint256",
          "name": "",
          "type": "uint256"
        }
      ],
      "stateMutability": "view",
      "type": "function"
    },
    {
      "inputs": [
        {
          "internalType": "uint256",
          "name": "tokenId",
          "type": "uint256"
        }
      ],
      "name": "tokenURI",
      "outputs": [
        {
          "internalType": "string",
          "name": "",
          "type": "string"
        }
      ],
      "stateMutability": "view",
      "type": "function"
    },
    {
      "inputs": [],
      "name": "totalSupply",
      "outputs": [
        {
          "internalType": "uint256",
          "name": "",
          "type": "uint256"
        }
      ],
      "stateMutability": "view",
      "type": "function"
    },
    {
      "inputs": [
        {
          "internalType": "address",
          "name": "from",
          "type": "address"
        },
        {
          "internalType": "address",
          "name": "to",
          "type": "address"
        },
        {
          "internalType": "uint256",
          "name": "tokenId",
          "type": "uint256"
        }
      ],
      "name": "transferFrom",
      "outputs": [],
      "stateMutability": "nonpayable",
      "type": "function"
    },
    {
      "inputs": [
        {
          "internalType": "address",
          "name": "newOwner",
          "type": "address"
        }
      ],
      "name": "transferOwnership",
      "outputs": [],
      "stateMutability": "nonpayable",
      "type": "function"
    },
    {
      "inputs": [],
      "name": "unpause",
      "outputs": [],
      "stateMutability": "nonpayable",
      "type": "function"
    }
  ],
  "bytecode": "0x60806040526000600d556000600e553480156200001b57600080fd5b506040518060400160405280600981526020017f466c656d566f74657300000000000000000000000000000000000000000000008152506040518060400160405280600281526020017f46560000000000000000000000000000000000000000000000000000000000008152508160009080519060200190620000a0929190620001cb565b508060019080519060200190620000b9929190620001cb565b5050506000600a60006101000a81548160ff021916908315150217905550620000f7620000eb620000fd60201b60201c565b6200010560201b60201c565b620002e0565b600033905090565b6000600a60019054906101000a900473ffffffffffffffffffffffffffffffffffffffff16905081600a60016101000a81548173ffffffffffffffffffffffffffffffffffffffff021916908373ffffffffffffffffffffffffffffffffffffffff1602179055508173ffffffffffffffffffffffffffffffffffffffff168173ffffffffffffffffffffffffffffffffffffffff167f8be0079c531659141344cd1fd0a4f28419497f9722a3daafe3b4186f6b6457e060405160405180910390a35050565b828054620001d9906200027b565b90600052602060002090601f016020900481019282620001fd576000855562000249565b82601f106200021857805160ff191683800117855562000249565b8280016001018555821562000249579182015b82811115620002485782518255916020019190600101906200022b565b5b5090506200025891906200025c565b5090565b5b80821115620002775760008160009055506001016200025d565b5090565b600060028204905060018216806200029457607f821691505b60208210811415620002ab57620002aa620002b1565b5b50919050565b7f4e487b7100000000000000000000000000000000000000000000000000000000600052602260045260246000fd5b613f7080620002f06000396000f3fe608060405234801561001057600080fd5b50600436106101da5760003560e01c80636352211e1161010457806395d89b41116100a2578063b88d4fde11610071578063b88d4fde14610519578063c87b56dd14610535578063e985e9c514610565578063f2fde38b14610595576101da565b806395d89b4114610493578063a22cb465146104b1578063ac294b59146104cd578063b633620c146104e9576101da565b8063715018a6116100de578063715018a6146104455780637a5035cd1461044f5780638456cb591461046b5780638da5cb5b14610475576101da565b80636352211e146103db5780636c323d261461040b57806370a0823114610415576101da565b80632f54bf6e1161017c57806342842e0e1161014b57806342842e0e1461035557806342966c68146103715780634f6ccce71461038d5780635c975abb146103bd576101da565b80632f54bf6e146102cf5780632f745c59146102ff5780633f4ba83a1461032f57806340d097c314610339576101da565b8063095ea7b3116101b8578063095ea7b31461025d5780630a430f671461027957806318160ddd1461029557806323b872dd146102b3576101da565b806301ffc9a7146101df57806306fdde031461020f578063081812fc1461022d575b600080fd5b6101f960048036038101906101f49190612ea8565b6105b1565b6040516102069190613838565b60405180910390f35b6102176105c3565b6040516102249190613853565b60405180910390f35b61024760048036038101906102429190612efa565b610655565b60405161025491906137d1565b60405180910390f35b61027760048036038101906102729190612e6c565b6106da565b005b610293600480360381019061028e9190612d01565b6107f2565b005b61029d61087c565b6040516102aa9190613b35565b60405180910390f35b6102cd60048036038101906102c89190612d66565b610889565b005b6102e960048036038101906102e49190612d01565b6108e9565b6040516102f69190613838565b60405180910390f35b61031960048036038101906103149190612e6c565b61090e565b6040516103269190613b35565b60405180910390f35b6103376109b3565b005b610353600480360381019061034e9190612d01565b610a39565b005b61036f600480360381019061036a9190612d66565b610b0b565b005b61038b60048036038101906103869190612efa565b610b2b565b005b6103a760048036038101906103a29190612efa565b610b87565b6040516103b49190613b35565b60405180910390f35b6103c5610c1e565b6040516103d29190613838565b60405180910390f35b6103f560048036038101906103f09190612efa565b610c35565b60405161040291906137d1565b60405180910390f35b610413610ce7565b005b61042f600480360381019061042a9190612d01565b610d77565b60405161043c9190613b35565b60405180910390f35b61044d610e2f565b005b61046960048036038101906104649190612e6c565b610eb7565b005b610473610fa3565b005b61047d611029565b60405161048a91906137d1565b60405180910390f35b61049b611053565b6040516104a89190613853565b60405180910390f35b6104cb60048036038101906104c69190612e30565b6110e5565b005b6104e760048036038101906104e29190612efa565b6110fb565b005b61050360048036038101906104fe9190612efa565b61124f565b6040516105109190613b35565b60405180910390f35b610533600480360381019061052e9190612db5565b61126c565b005b61054f600480360381019061054a9190612efa565b6112ce565b60405161055c9190613853565b60405180910390f35b61057f600480360381019061057a9190612d2a565b611375565b60405161058c9190613838565b60405180910390f35b6105af60048036038101906105aa9190612d01565b611409565b005b60006105bc82611501565b9050919050565b6060600080546105d290613d65565b80601f01602080910402602001604051908101604052809291908181526020018280546105fe90613d65565b801561064b5780601f106106205761010080835404028352916020019161064b565b820191906000526020600020905b81548152906001019060200180831161062e57829003601f168201915b5050505050905090565b60006106608261157b565b61069f576040517f08c379a000000000000000000000000000000000000000000000000000000000815260040161069690613a35565b60405180910390fd5b6004600083815260200190815260200160002060009054906101000a900473ffffffffffffffffffffffffffffffffffffffff169050919050565b60006106e582610c35565b90508073ffffffffffffffffffffffffffffffffffffffff168373ffffffffffffffffffffffffffffffffffffffff161415610756576040517f08c379a000000000000000000000000000000000000000000000000000000000815260040161074d90613ab5565b60405180910390fd5b8073ffffffffffffffffffffffffffffffffffffffff166107756115e7565b73ffffffffffffffffffffffffffffffffffffffff1614806107a457506107a38161079e6115e7565b611375565b5b6107e3576040517f08c379a00000000000000000000000000000000000000000000000000000000081526004016107da906139b5565b60405180910390fd5b6107ed83836115ef565b505050565b6107fa6115e7565b73ffffffffffffffffffffffffffffffffffffffff16610818611029565b73ffffffffffffffffffffffffffffffffffffffff161461086e576040517f08c379a000000000000000000000000000000000000000000000000000000000815260040161086590613a55565b60405180910390fd5b61087981600a610eb7565b50565b6000600880549050905090565b61089a6108946115e7565b826116a8565b6108d9576040517f08c379a00000000000000000000000000000000000000000000000000000000081526004016108d090613ad5565b60405180910390fd5b6108e4838383611786565b505050565b6000806108f583610d77565b11156109045760019050610909565b600090505b919050565b600061091983610d77565b821061095a576040517f08c379a0000000000000000000000000000000000000000000000000000000008152600401610951906138b5565b60405180910390fd5b600660008473ffffffffffffffffffffffffffffffffffffffff1673ffffffffffffffffffffffffffffffffffffffff168152602001908152602001600020600083815260200190815260200160002054905092915050565b6109bb6115e7565b73ffffffffffffffffffffffffffffffffffffffff166109d9611029565b73ffffffffffffffffffffffffffffffffffffffff1614610a2f576040517f08c379a0000000000000000000000000000000000000000000000000000000008152600401610a2690613a55565b60405180910390fd5b610a376119e2565b565b610a416115e7565b73ffffffffffffffffffffffffffffffffffffffff16610a5f611029565b73ffffffffffffffffffffffffffffffffffffffff1614610ab5576040517f08c379a0000000000000000000000000000000000000000000000000000000008152600401610aac90613a55565b60405180910390fd5b6000610ac1600f611a84565b9050610acd600f611a92565b610ad78282611aa8565b42600c600083815260200190815260200160002081905550600e6000815480929190610b0290613d97565b91905055505050565b610b268383836040518060200160405280600081525061126c565b505050565b610b3c610b366115e7565b826116a8565b610b7b576040517f08c379a0000000000000000000000000000000000000000000000000000000008152600401610b7290613b15565b60405180910390fd5b610b8481611ac6565b50565b6000610b9161087c565b8210610bd2576040517f08c379a0000000000000000000000000000000000000000000000000000000008152600401610bc990613af5565b60405180910390fd5b60088281548110610c0c577f4e487b7100000000000000000000000000000000000000000000000000000000600052603260045260246000fd5b90600052602060002001549050919050565b6000600a60009054906101000a900460ff16905090565b6000806002600084815260200190815260200160002060009054906101000a900473ffffffffffffffffffffffffffffffffffffffff169050600073ffffffffffffffffffffffffffffffffffffffff168173ffffffffffffffffffffffffffffffffffffffff161415610cde576040517f08c379a0000000000000000000000000000000000000000000000000000000008152600401610cd5906139f5565b60405180910390fd5b80915050919050565b610cef6115e7565b73ffffffffffffffffffffffffffffffffffffffff16610d0d611029565b73ffffffffffffffffffffffffffffffffffffffff1614610d63576040517f08c379a0000000000000000000000000000000000000000000000000000000008152600401610d5a90613a55565b60405180910390fd5b6000620d2f009050610d74816110fb565b50565b60008073ffffffffffffffffffffffffffffffffffffffff168273ffffffffffffffffffffffffffffffffffffffff161415610de8576040517f08c379a0000000000000000000000000000000000000000000000000000000008152600401610ddf906139d5565b60405180910390fd5b600360008373ffffffffffffffffffffffffffffffffffffffff1673ffffffffffffffffffffffffffffffffffffffff168152602001908152602001600020549050919050565b610e376115e7565b73ffffffffffffffffffffffffffffffffffffffff16610e55611029565b73ffffffffffffffffffffffffffffffffffffffff1614610eab576040517f08c379a0000000000000000000000000000000000000000000000000000000008152600401610ea290613a55565b60405180910390fd5b610eb56000611bd7565b565b610ebf6115e7565b73ffffffffffffffffffffffffffffffffffffffff16610edd611029565b73ffffffffffffffffffffffffffffffffffffffff1614610f33576040517f08c379a0000000000000000000000000000000000000000000000000000000008152600401610f2a90613a55565b60405180910390fd5b601e811115610f77576040517f08c379a0000000000000000000000000000000000000000000000000000000008152600401610f6e90613895565b60405180910390fd5b60005b81811015610f9e57610f8b83610a39565b8080610f9690613d97565b915050610f7a565b505050565b610fab6115e7565b73ffffffffffffffffffffffffffffffffffffffff16610fc9611029565b73ffffffffffffffffffffffffffffffffffffffff161461101f576040517f08c379a000000000000000000000000000000000000000000000000000000000815260040161101690613a55565b60405180910390fd5b611027611c9d565b565b6000600a60019054906101000a900473ffffffffffffffffffffffffffffffffffffffff16905090565b60606001805461106290613d65565b80601f016020809104026020016040519081016040528092919081815260200182805461108e90613d65565b80156110db5780601f106110b0576101008083540402835291602001916110db565b820191906000526020600020905b8154815290600101906020018083116110be57829003601f168201915b5050505050905090565b6110f76110f06115e7565b8383611d40565b5050565b6111036115e7565b73ffffffffffffffffffffffffffffffffffffffff16611121611029565b73ffffffffffffffffffffffffffffffffffffffff1614611177576040517f08c379a000000000000000000000000000000000000000000000000000000000815260040161116e90613a55565b60405180910390fd5b6000600d5490506000824261118c9190613c7b565b90506000600c60008481526020019081526020016000205490505b81811080156111c457506001600e546111c09190613c7b565b8311155b15611242576111d283611ac6565b82806111dd90613d97565b935050600c60008481526020019081526020016000205490506112346040518060400160405280601481526020017f6275726e656420746f6b656e2061742069643a20000000000000000000000000815250611ead565b61123d83611f46565b6111a7565b82600d8190555050505050565b6000600c6000838152602001908152602001600020549050919050565b61127d6112776115e7565b836116a8565b6112bc576040517f08c379a00000000000000000000000000000000000000000000000000000000081526004016112b390613ad5565b60405180910390fd5b6112c884848484611fdf565b50505050565b60606112d98261157b565b611318576040517f08c379a000000000000000000000000000000000000000000000000000000000815260040161130f90613a95565b60405180910390fd5b600061132261203b565b90506000815111611342576040518060200160405280600081525061136d565b8061134c84612052565b60405160200161135d9291906137ad565b6040516020818303038152906040525b915050919050565b6000600560008473ffffffffffffffffffffffffffffffffffffffff1673ffffffffffffffffffffffffffffffffffffffff16815260200190815260200160002060008373ffffffffffffffffffffffffffffffffffffffff1673ffffffffffffffffffffffffffffffffffffffff16815260200190815260200160002060009054906101000a900460ff16905092915050565b6114116115e7565b73ffffffffffffffffffffffffffffffffffffffff1661142f611029565b73ffffffffffffffffffffffffffffffffffffffff1614611485576040517f08c379a000000000000000000000000000000000000000000000000000000000815260040161147c90613a55565b60405180910390fd5b600073ffffffffffffffffffffffffffffffffffffffff168173ffffffffffffffffffffffffffffffffffffffff1614156114f5576040517f08c379a00000000000000000000000000000000000000000000000000000000081526004016114ec906138f5565b60405180910390fd5b6114fe81611bd7565b50565b60007f780e9d63000000000000000000000000000000000000000000000000000000007bffffffffffffffffffffffffffffffffffffffffffffffffffffffff1916827bffffffffffffffffffffffffffffffffffffffffffffffffffffffff191614806115745750611573826121ff565b5b9050919050565b60008073ffffffffffffffffffffffffffffffffffffffff166002600084815260200190815260200160002060009054906101000a900473ffffffffffffffffffffffffffffffffffffffff1673ffffffffffffffffffffffffffffffffffffffff1614159050919050565b600033905090565b816004600083815260200190815260200160002060006101000a81548173ffffffffffffffffffffffffffffffffffffffff021916908373ffffffffffffffffffffffffffffffffffffffff160217905550808273ffffffffffffffffffffffffffffffffffffffff1661166283610c35565b73ffffffffffffffffffffffffffffffffffffffff167f8c5be1e5ebec7d5bd14f71427d1e84f3dd0314c0f7b2291e5b200ac8c7c3b92560405160405180910390a45050565b60006116b38261157b565b6116f2576040517f08c379a00000000000000000000000000000000000000000000000000000000081526004016116e990613975565b60405180910390fd5b60006116fd83610c35565b90508073ffffffffffffffffffffffffffffffffffffffff168473ffffffffffffffffffffffffffffffffffffffff16148061176c57508373ffffffffffffffffffffffffffffffffffffffff1661175484610655565b73ffffffffffffffffffffffffffffffffffffffff16145b8061177d575061177c8185611375565b5b91505092915050565b8273ffffffffffffffffffffffffffffffffffffffff166117a682610c35565b73ffffffffffffffffffffffffffffffffffffffff16146117fc576040517f08c379a00000000000000000000000000000000000000000000000000000000081526004016117f390613a75565b60405180910390fd5b600073ffffffffffffffffffffffffffffffffffffffff168273ffffffffffffffffffffffffffffffffffffffff16141561186c576040517f08c379a000000000000000000000000000000000000000000000000000000000815260040161186390613935565b60405180910390fd5b6118778383836122e1565b6118826000826115ef565b6001600360008573ffffffffffffffffffffffffffffffffffffffff1673ffffffffffffffffffffffffffffffffffffffff16815260200190815260200160002060008282546118d29190613c7b565b925050819055506001600360008473ffffffffffffffffffffffffffffffffffffffff1673ffffffffffffffffffffffffffffffffffffffff16815260200190815260200160002060008282546119299190613bf4565b92505081905550816002600083815260200190815260200160002060006101000a81548173ffffffffffffffffffffffffffffffffffffffff021916908373ffffffffffffffffffffffffffffffffffffffff160217905550808273ffffffffffffffffffffffffffffffffffffffff168473ffffffffffffffffffffffffffffffffffffffff167fddf252ad1be2c89b69c2b068fc378daa952ba7f163c4a11628f55a4df523b3ef60405160405180910390a4505050565b6119ea610c1e565b611a29576040517f08c379a0000000000000000000000000000000000000000000000000000000008152600401611a2090613875565b60405180910390fd5b6000600a60006101000a81548160ff0219169083151502179055507f5db9ee0a495bf2e6ff9c91a7834c1ba4fdd244a5e8aa4e537bd38aeae4b073aa611a6d6115e7565b604051611a7a91906137d1565b60405180910390a1565b600081600001549050919050565b6001816000016000828254019250508190555050565b611ac2828260405180602001604052806000815250612339565b5050565b6000611ad182610c35565b9050611adf816000846122e1565b611aea6000836115ef565b6001600360008373ffffffffffffffffffffffffffffffffffffffff1673ffffffffffffffffffffffffffffffffffffffff1681526020019081526020016000206000828254611b3a9190613c7b565b925050819055506002600083815260200190815260200160002060006101000a81549073ffffffffffffffffffffffffffffffffffffffff021916905581600073ffffffffffffffffffffffffffffffffffffffff168273ffffffffffffffffffffffffffffffffffffffff167fddf252ad1be2c89b69c2b068fc378daa952ba7f163c4a11628f55a4df523b3ef60405160405180910390a45050565b6000600a60019054906101000a900473ffffffffffffffffffffffffffffffffffffffff16905081600a60016101000a81548173ffffffffffffffffffffffffffffffffffffffff021916908373ffffffffffffffffffffffffffffffffffffffff1602179055508173ffffffffffffffffffffffffffffffffffffffff168173ffffffffffffffffffffffffffffffffffffffff167f8be0079c531659141344cd1fd0a4f28419497f9722a3daafe3b4186f6b6457e060405160405180910390a35050565b611ca5610c1e565b15611ce5576040517f08c379a0000000000000000000000000000000000000000000000000000000008152600401611cdc90613995565b60405180910390fd5b6001600a60006101000a81548160ff0219169083151502179055507f62e78cea01bee320cd4e420270b5ea74000d11b0c9f74754ebdbfc544b05a258611d296115e7565b604051611d3691906137d1565b60405180910390a1565b8173ffffffffffffffffffffffffffffffffffffffff168373ffffffffffffffffffffffffffffffffffffffff161415611daf576040517f08c379a0000000000000000000000000000000000000000000000000000000008152600401611da690613955565b60405180910390fd5b80600560008573ffffffffffffffffffffffffffffffffffffffff1673ffffffffffffffffffffffffffffffffffffffff16815260200190815260200160002060008473ffffffffffffffffffffffffffffffffffffffff1673ffffffffffffffffffffffffffffffffffffffff16815260200190815260200160002060006101000a81548160ff0219169083151502179055508173ffffffffffffffffffffffffffffffffffffffff168373ffffffffffffffffffffffffffffffffffffffff167f17307eab39ab6107e8899845ad3d59bd9653f200f220920489ca2b5937696c3183604051611ea09190613838565b60405180910390a3505050565b611f4381604051602401611ec19190613853565b6040516020818303038152906040527f41304fac000000000000000000000000000000000000000000000000000000007bffffffffffffffffffffffffffffffffffffffffffffffffffffffff19166020820180517bffffffffffffffffffffffffffffffffffffffffffffffffffffffff8381831617835250505050612394565b50565b611fdc81604051602401611f5a9190613b35565b6040516020818303038152906040527ff5b1bba9000000000000000000000000000000000000000000000000000000007bffffffffffffffffffffffffffffffffffffffffffffffffffffffff19166020820180517bffffffffffffffffffffffffffffffffffffffffffffffffffffffff8381831617835250505050612394565b50565b611fea848484611786565b611ff6848484846123bd565b612035576040517f08c379a000000000000000000000000000000000000000000000000000000000815260040161202c906138d5565b60405180910390fd5b50505050565b606060405180602001604052806000815250905090565b6060600082141561209a576040518060400160405280600181526020017f300000000000000000000000000000000000000000000000000000000000000081525090506121fa565b600082905060005b600082146120cc5780806120b590613d97565b915050600a826120c59190613c4a565b91506120a2565b60008167ffffffffffffffff81111561210e577f4e487b7100000000000000000000000000000000000000000000000000000000600052604160045260246000fd5b6040519080825280601f01601f1916602001820160405280156121405781602001600182028036833780820191505090505b5090505b600085146121f3576001826121599190613c7b565b9150600a856121689190613de0565b60306121749190613bf4565b60f81b8183815181106121b0577f4e487b7100000000000000000000000000000000000000000000000000000000600052603260045260246000fd5b60200101907effffffffffffffffffffffffffffffffffffffffffffffffffffffffffffff1916908160001a905350600a856121ec9190613c4a565b9450612144565b8093505050505b919050565b60007f80ac58cd000000000000000000000000000000000000000000000000000000007bffffffffffffffffffffffffffffffffffffffffffffffffffffffff1916827bffffffffffffffffffffffffffffffffffffffffffffffffffffffff191614806122ca57507f5b5e139f000000000000000000000000000000000000000000000000000000007bffffffffffffffffffffffffffffffffffffffffffffffffffffffff1916827bffffffffffffffffffffffffffffffffffffffffffffffffffffffff1916145b806122da57506122d982612554565b5b9050919050565b6122e9610c1e565b15612329576040517f08c379a000000000000000000000000000000000000000000000000000000000815260040161232090613995565b60405180910390fd5b6123348383836125be565b505050565b61234383836126d2565b61235060008484846123bd565b61238f576040517f08c379a0000000000000000000000000000000000000000000000000000000008152600401612386906138d5565b60405180910390fd5b505050565b60008151905060006a636f6e736f6c652e6c6f679050602083016000808483855afa5050505050565b60006123de8473ffffffffffffffffffffffffffffffffffffffff166128a0565b15612547578373ffffffffffffffffffffffffffffffffffffffff1663150b7a026124076115e7565b8786866040518563ffffffff1660e01b815260040161242994939291906137ec565b602060405180830381600087803b15801561244357600080fd5b505af192505050801561247457506040513d601f19601f820116820180604052508101906124719190612ed1565b60015b6124f7573d80600081146124a4576040519150601f19603f3d011682016040523d82523d6000602084013e6124a9565b606091505b506000815114156124ef576040517f08c379a00000000000000000000000000000000000000000000000000000000081526004016124e6906138d5565b60405180910390fd5b805181602001fd5b63150b7a0260e01b7bffffffffffffffffffffffffffffffffffffffffffffffffffffffff1916817bffffffffffffffffffffffffffffffffffffffffffffffffffffffff19161491505061254c565b600190505b949350505050565b60007f01ffc9a7000000000000000000000000000000000000000000000000000000007bffffffffffffffffffffffffffffffffffffffffffffffffffffffff1916827bffffffffffffffffffffffffffffffffffffffffffffffffffffffff1916149050919050565b6125c98383836128b3565b600073ffffffffffffffffffffffffffffffffffffffff168373ffffffffffffffffffffffffffffffffffffffff16141561260c57612607816128b8565b61264b565b8173ffffffffffffffffffffffffffffffffffffffff168373ffffffffffffffffffffffffffffffffffffffff161461264a576126498382612901565b5b5b600073ffffffffffffffffffffffffffffffffffffffff168273ffffffffffffffffffffffffffffffffffffffff16141561268e5761268981612a6e565b6126cd565b8273ffffffffffffffffffffffffffffffffffffffff168273ffffffffffffffffffffffffffffffffffffffff16146126cc576126cb8282612bb1565b5b5b505050565b600073ffffffffffffffffffffffffffffffffffffffff168273ffffffffffffffffffffffffffffffffffffffff161415612742576040517f08c379a000000000000000000000000000000000000000000000000000000000815260040161273990613a15565b60405180910390fd5b61274b8161157b565b1561278b576040517f08c379a000000000000000000000000000000000000000000000000000000000815260040161278290613915565b60405180910390fd5b612797600083836122e1565b6001600360008473ffffffffffffffffffffffffffffffffffffffff1673ffffffffffffffffffffffffffffffffffffffff16815260200190815260200160002060008282546127e79190613bf4565b92505081905550816002600083815260200190815260200160002060006101000a81548173ffffffffffffffffffffffffffffffffffffffff021916908373ffffffffffffffffffffffffffffffffffffffff160217905550808273ffffffffffffffffffffffffffffffffffffffff16600073ffffffffffffffffffffffffffffffffffffffff167fddf252ad1be2c89b69c2b068fc378daa952ba7f163c4a11628f55a4df523b3ef60405160405180910390a45050565b600080823b905060008111915050919050565b505050565b6008805490506009600083815260200190815260200160002081905550600881908060018154018082558091505060019003906000526020600020016000909190919091505550565b6000600161290e84610d77565b6129189190613c7b565b90506000600760008481526020019081526020016000205490508181146129fd576000600660008673ffffffffffffffffffffffffffffffffffffffff1673ffffffffffffffffffffffffffffffffffffffff168152602001908152602001600020600084815260200190815260200160002054905080600660008773ffffffffffffffffffffffffffffffffffffffff1673ffffffffffffffffffffffffffffffffffffffff168152602001908152602001600020600084815260200190815260200160002081905550816007600083815260200190815260200160002081905550505b6007600084815260200190815260200160002060009055600660008573ffffffffffffffffffffffffffffffffffffffff1673ffffffffffffffffffffffffffffffffffffffff16815260200190815260200160002060008381526020019081526020016000206000905550505050565b60006001600880549050612a829190613c7b565b9050600060096000848152602001908152602001600020549050600060088381548110612ad8577f4e487b7100000000000000000000000000000000000000000000000000000000600052603260045260246000fd5b906000526020600020015490508060088381548110612b20577f4e487b7100000000000000000000000000000000000000000000000000000000600052603260045260246000fd5b906000526020600020018190555081600960008381526020019081526020016000208190555060096000858152602001908152602001600020600090556008805480612b95577f4e487b7100000000000000000000000000000000000000000000000000000000600052603160045260246000fd5b6001900381819060005260206000200160009055905550505050565b6000612bbc83610d77565b905081600660008573ffffffffffffffffffffffffffffffffffffffff1673ffffffffffffffffffffffffffffffffffffffff168152602001908152602001600020600083815260200190815260200160002081905550806007600084815260200190815260200160002081905550505050565b6000612c43612c3e84613b81565b613b50565b905082815260208101848484011115612c5b57600080fd5b612c66848285613d23565b509392505050565b600081359050612c7d81613ede565b92915050565b600081359050612c9281613ef5565b92915050565b600081359050612ca781613f0c565b92915050565b600081519050612cbc81613f0c565b92915050565b600082601f830112612cd357600080fd5b8135612ce3848260208601612c30565b91505092915050565b600081359050612cfb81613f23565b92915050565b600060208284031215612d1357600080fd5b6000612d2184828501612c6e565b91505092915050565b60008060408385031215612d3d57600080fd5b6000612d4b85828601612c6e565b9250506020612d5c85828601612c6e565b9150509250929050565b600080600060608486031215612d7b57600080fd5b6000612d8986828701612c6e565b9350506020612d9a86828701612c6e565b9250506040612dab86828701612cec565b9150509250925092565b60008060008060808587031215612dcb57600080fd5b6000612dd987828801612c6e565b9450506020612dea87828801612c6e565b9350506040612dfb87828801612cec565b925050606085013567ffffffffffffffff811115612e1857600080fd5b612e2487828801612cc2565b91505092959194509250565b60008060408385031215612e4357600080fd5b6000612e5185828601612c6e565b9250506020612e6285828601612c83565b9150509250929050565b60008060408385031215612e7f57600080fd5b6000612e8d85828601612c6e565b9250506020612e9e85828601612cec565b9150509250929050565b600060208284031215612eba57600080fd5b6000612ec884828501612c98565b91505092915050565b600060208284031215612ee357600080fd5b6000612ef184828501612cad565b91505092915050565b600060208284031215612f0c57600080fd5b6000612f1a84828501612cec565b91505092915050565b612f2c81613caf565b82525050565b612f3b81613cc1565b82525050565b6000612f4c82613bb1565b612f568185613bc7565b9350612f66818560208601613d32565b612f6f81613ecd565b840191505092915050565b6000612f8582613bbc565b612f8f8185613bd8565b9350612f9f818560208601613d32565b612fa881613ecd565b840191505092915050565b6000612fbe82613bbc565b612fc88185613be9565b9350612fd8818560208601613d32565b80840191505092915050565b6000612ff1601483613bd8565b91507f5061757361626c653a206e6f74207061757365640000000000000000000000006000830152602082019050919050565b6000613031602083613bd8565b91507f52657075746174696f6e20616d6f756e7420697320746f6f20686967682078646000830152602082019050919050565b6000613071602b83613bd8565b91507f455243373231456e756d657261626c653a206f776e657220696e646578206f7560008301527f74206f6620626f756e64730000000000000000000000000000000000000000006020830152604082019050919050565b60006130d7603283613bd8565b91507f4552433732313a207472616e7366657220746f206e6f6e20455243373231526560008301527f63656976657220696d706c656d656e74657200000000000000000000000000006020830152604082019050919050565b600061313d602683613bd8565b91507f4f776e61626c653a206e6577206f776e657220697320746865207a65726f206160008301527f64647265737300000000000000000000000000000000000000000000000000006020830152604082019050919050565b60006131a3601c83613bd8565b91507f4552433732313a20746f6b656e20616c7265616479206d696e746564000000006000830152602082019050919050565b60006131e3602483613bd8565b91507f4552433732313a207472616e7366657220746f20746865207a65726f2061646460008301527f72657373000000000000000000000000000000000000000000000000000000006020830152604082019050919050565b6000613249601983613bd8565b91507f4552433732313a20617070726f766520746f2063616c6c6572000000000000006000830152602082019050919050565b6000613289602c83613bd8565b91507f4552433732313a206f70657261746f7220717565727920666f72206e6f6e657860008301527f697374656e7420746f6b656e00000000000000000000000000000000000000006020830152604082019050919050565b60006132ef601083613bd8565b91507f5061757361626c653a20706175736564000000000000000000000000000000006000830152602082019050919050565b600061332f603883613bd8565b91507f4552433732313a20617070726f76652063616c6c6572206973206e6f74206f7760008301527f6e6572206e6f7220617070726f76656420666f7220616c6c00000000000000006020830152604082019050919050565b6000613395602a83613bd8565b91507f4552433732313a2062616c616e636520717565727920666f7220746865207a6560008301527f726f2061646472657373000000000000000000000000000000000000000000006020830152604082019050919050565b60006133fb602983613bd8565b91507f4552433732313a206f776e657220717565727920666f72206e6f6e657869737460008301527f656e7420746f6b656e00000000000000000000000000000000000000000000006020830152604082019050919050565b6000613461602083613bd8565b91507f4552433732313a206d696e7420746f20746865207a65726f20616464726573736000830152602082019050919050565b60006134a1602c83613bd8565b91507f4552433732313a20617070726f76656420717565727920666f72206e6f6e657860008301527f697374656e7420746f6b656e00000000000000000000000000000000000000006020830152604082019050919050565b6000613507602083613bd8565b91507f4f776e61626c653a2063616c6c6572206973206e6f7420746865206f776e65726000830152602082019050919050565b6000613547602983613bd8565b91507f4552433732313a207472616e73666572206f6620746f6b656e2074686174206960008301527f73206e6f74206f776e00000000000000000000000000000000000000000000006020830152604082019050919050565b60006135ad602f83613bd8565b91507f4552433732314d657461646174613a2055524920717565727920666f72206e6f60008301527f6e6578697374656e7420746f6b656e00000000000000000000000000000000006020830152604082019050919050565b6000613613602183613bd8565b91507f4552433732313a20617070726f76616c20746f2063757272656e74206f776e6560008301527f72000000000000000000000000000000000000000000000000000000000000006020830152604082019050919050565b6000613679603183613bd8565b91507f4552433732313a207472616e736665722063616c6c6572206973206e6f74206f60008301527f776e6572206e6f7220617070726f7665640000000000000000000000000000006020830152604082019050919050565b60006136df602c83613bd8565b91507f455243373231456e756d657261626c653a20676c6f62616c20696e646578206f60008301527f7574206f6620626f756e647300000000000000000000000000000000000000006020830152604082019050919050565b6000613745603083613bd8565b91507f4552433732314275726e61626c653a2063616c6c6572206973206e6f74206f7760008301527f6e6572206e6f7220617070726f766564000000000000000000000000000000006020830152604082019050919050565b6137a781613d19565b82525050565b60006137b98285612fb3565b91506137c58284612fb3565b91508190509392505050565b60006020820190506137e66000830184612f23565b92915050565b60006080820190506138016000830187612f23565b61380e6020830186612f23565b61381b604083018561379e565b818103606083015261382d8184612f41565b905095945050505050565b600060208201905061384d6000830184612f32565b92915050565b6000602082019050818103600083015261386d8184612f7a565b905092915050565b6000602082019050818103600083015261388e81612fe4565b9050919050565b600060208201905081810360008301526138ae81613024565b9050919050565b600060208201905081810360008301526138ce81613064565b9050919050565b600060208201905081810360008301526138ee816130ca565b9050919050565b6000602082019050818103600083015261390e81613130565b9050919050565b6000602082019050818103600083015261392e81613196565b9050919050565b6000602082019050818103600083015261394e816131d6565b9050919050565b6000602082019050818103600083015261396e8161323c565b9050919050565b6000602082019050818103600083015261398e8161327c565b9050919050565b600060208201905081810360008301526139ae816132e2565b9050919050565b600060208201905081810360008301526139ce81613322565b9050919050565b600060208201905081810360008301526139ee81613388565b9050919050565b60006020820190508181036000830152613a0e816133ee565b9050919050565b60006020820190508181036000830152613a2e81613454565b9050919050565b60006020820190508181036000830152613a4e81613494565b9050919050565b60006020820190508181036000830152613a6e816134fa565b9050919050565b60006020820190508181036000830152613a8e8161353a565b9050919050565b60006020820190508181036000830152613aae816135a0565b9050919050565b60006020820190508181036000830152613ace81613606565b9050919050565b60006020820190508181036000830152613aee8161366c565b9050919050565b60006020820190508181036000830152613b0e816136d2565b9050919050565b60006020820190508181036000830152613b2e81613738565b9050919050565b6000602082019050613b4a600083018461379e565b92915050565b6000604051905081810181811067ffffffffffffffff82111715613b7757613b76613e9e565b5b8060405250919050565b600067ffffffffffffffff821115613b9c57613b9b613e9e565b5b601f19601f8301169050602081019050919050565b600081519050919050565b600081519050919050565b600082825260208201905092915050565b600082825260208201905092915050565b600081905092915050565b6000613bff82613d19565b9150613c0a83613d19565b9250827fffffffffffffffffffffffffffffffffffffffffffffffffffffffffffffffff03821115613c3f57613c3e613e11565b5b828201905092915050565b6000613c5582613d19565b9150613c6083613d19565b925082613c7057613c6f613e40565b5b828204905092915050565b6000613c8682613d19565b9150613c9183613d19565b925082821015613ca457613ca3613e11565b5b828203905092915050565b6000613cba82613cf9565b9050919050565b60008115159050919050565b60007fffffffff0000000000000000000000000000000000000000000000000000000082169050919050565b600073ffffffffffffffffffffffffffffffffffffffff82169050919050565b6000819050919050565b82818337600083830152505050565b60005b83811015613d50578082015181840152602081019050613d35565b83811115613d5f576000848401525b50505050565b60006002820490506001821680613d7d57607f821691505b60208210811415613d9157613d90613e6f565b5b50919050565b6000613da282613d19565b91507fffffffffffffffffffffffffffffffffffffffffffffffffffffffffffffffff821415613dd557613dd4613e11565b5b600182019050919050565b6000613deb82613d19565b9150613df683613d19565b925082613e0657613e05613e40565b5b828206905092915050565b7f4e487b7100000000000000000000000000000000000000000000000000000000600052601160045260246000fd5b7f4e487b7100000000000000000000000000000000000000000000000000000000600052601260045260246000fd5b7f4e487b7100000000000000000000000000000000000000000000000000000000600052602260045260246000fd5b7f4e487b7100000000000000000000000000000000000000000000000000000000600052604160045260246000fd5b6000601f19601f8301169050919050565b613ee781613caf565b8114613ef257600080fd5b50565b613efe81613cc1565b8114613f0957600080fd5b50565b613f1581613ccd565b8114613f2057600080fd5b50565b613f2c81613d19565b8114613f3757600080fd5b5056fea264697066735822122040de1f9a719f6ac075257146c1ff3069a0f4bbacb1ef482e57e46d41d2b59e2a64736f6c63430008000033",
  "linkReferences": {},
  "deployedLinkReferences": {}
}