{
  "_format": "hh-sol-artifact-1",
  "contractName": "HackLodgeNFT",
  "sourceName": "contracts/HackLodgeNFT.sol",
  "abi": [
    {
      "inputs": [],
      "stateMutability": "nonpayable",
      "type": "constructor"
    },
    {
      "anonymous": false,
      "inputs": [
        {
          "indexed": true,
          "internalType": "address",
          "name": "owner",
          "type": "address"
        },
        {
          "indexed": true,
          "internalType": "address",
          "name": "approved",
          "type": "address"
        },
        {
          "indexed": true,
          "internalType": "uint256",
          "name": "tokenId",
          "type": "uint256"
        }
      ],
      "name": "Approval",
      "type": "event"
    },
    {
      "anonymous": false,
      "inputs": [
        {
          "indexed": true,
          "internalType": "address",
          "name": "owner",
          "type": "address"
        },
        {
          "indexed": true,
          "internalType": "address",
          "name": "operator",
          "type": "address"
        },
        {
          "indexed": false,
          "internalType": "bool",
          "name": "approved",
          "type": "bool"
        }
      ],
      "name": "ApprovalForAll",
      "type": "event"
    },
    {
      "anonymous": false,
      "inputs": [
        {
          "indexed": true,
          "internalType": "address",
          "name": "previousOwner",
          "type": "address"
        },
        {
          "indexed": true,
          "internalType": "address",
          "name": "newOwner",
          "type": "address"
        }
      ],
      "name": "OwnershipTransferred",
      "type": "event"
    },
    {
      "anonymous": false,
      "inputs": [
        {
          "indexed": true,
          "internalType": "address",
          "name": "from",
          "type": "address"
        },
        {
          "indexed": true,
          "internalType": "address",
          "name": "to",
          "type": "address"
        },
        {
          "indexed": true,
          "internalType": "uint256",
          "name": "tokenId",
          "type": "uint256"
        }
      ],
      "name": "Transfer",
      "type": "event"
    },
    {
      "inputs": [
        {
          "internalType": "address",
          "name": "to",
          "type": "address"
        },
        {
          "internalType": "uint256",
          "name": "tokenId",
          "type": "uint256"
        }
      ],
      "name": "approve",
      "outputs": [],
      "stateMutability": "nonpayable",
      "type": "function"
    },
    {
      "inputs": [
        {
          "internalType": "address",
          "name": "owner",
          "type": "address"
        }
      ],
      "name": "balanceOf",
      "outputs": [
        {
          "internalType": "uint256",
          "name": "",
          "type": "uint256"
        }
      ],
      "stateMutability": "view",
      "type": "function"
    },
    {
      "inputs": [
        {
          "internalType": "uint256",
          "name": "tokenId",
          "type": "uint256"
        }
      ],
      "name": "getApproved",
      "outputs": [
        {
          "internalType": "address",
          "name": "",
          "type": "address"
        }
      ],
      "stateMutability": "view",
      "type": "function"
    },
    {
      "inputs": [
        {
          "internalType": "address",
          "name": "owner",
          "type": "address"
        },
        {
          "internalType": "address",
          "name": "operator",
          "type": "address"
        }
      ],
      "name": "isApprovedForAll",
      "outputs": [
        {
          "internalType": "bool",
          "name": "",
          "type": "bool"
        }
      ],
      "stateMutability": "view",
      "type": "function"
    },
    {
      "inputs": [
        {
          "internalType": "address",
          "name": "to",
          "type": "address"
        },
        {
          "internalType": "string",
          "name": "tokenURI",
          "type": "string"
        }
      ],
      "name": "mintItem",
      "outputs": [
        {
          "internalType": "uint256",
          "name": "",
          "type": "uint256"
        }
      ],
      "stateMutability": "nonpayable",
      "type": "function"
    },
    {
      "inputs": [],
      "name": "name",
      "outputs": [
        {
          "internalType": "string",
          "name": "",
          "type": "string"
        }
      ],
      "stateMutability": "view",
      "type": "function"
    },
    {
      "inputs": [],
      "name": "owner",
      "outputs": [
        {
          "internalType": "address",
          "name": "",
          "type": "address"
        }
      ],
      "stateMutability": "view",
      "type": "function"
    },
    {
      "inputs": [
        {
          "internalType": "uint256",
          "name": "tokenId",
          "type": "uint256"
        }
      ],
      "name": "ownerOf",
      "outputs": [
        {
          "internalType": "address",
          "name": "",
          "type": "address"
        }
      ],
      "stateMutability": "view",
      "type": "function"
    },
    {
      "inputs": [],
      "name": "renounceOwnership",
      "outputs": [],
      "stateMutability": "nonpayable",
      "type": "function"
    },
    {
      "inputs": [
        {
          "internalType": "address",
          "name": "from",
          "type": "address"
        },
        {
          "internalType": "address",
          "name": "to",
          "type": "address"
        },
        {
          "internalType": "uint256",
          "name": "tokenId",
          "type": "uint256"
        }
      ],
      "name": "safeTransferFrom",
      "outputs": [],
      "stateMutability": "nonpayable",
      "type": "function"
    },
    {
      "inputs": [
        {
          "internalType": "address",
          "name": "from",
          "type": "address"
        },
        {
          "internalType": "address",
          "name": "to",
          "type": "address"
        },
        {
          "internalType": "uint256",
          "name": "tokenId",
          "type": "uint256"
        },
        {
          "internalType": "bytes",
          "name": "_data",
          "type": "bytes"
        }
      ],
      "name": "safeTransferFrom",
      "outputs": [],
      "stateMutability": "nonpayable",
      "type": "function"
    },
    {
      "inputs": [
        {
          "internalType": "address",
          "name": "operator",
          "type": "address"
        },
        {
          "internalType": "bool",
          "name": "approved",
          "type": "bool"
        }
      ],
      "name": "setApprovalForAll",
      "outputs": [],
      "stateMutability": "nonpayable",
      "type": "function"
    },
    {
      "inputs": [
        {
          "internalType": "bytes4",
          "name": "interfaceId",
          "type": "bytes4"
        }
      ],
      "name": "supportsInterface",
      "outputs": [
        {
          "internalType": "bool",
          "name": "",
          "type": "bool"
        }
      ],
      "stateMutability": "view",
      "type": "function"
    },
    {
      "inputs": [],
      "name": "symbol",
      "outputs": [
        {
          "internalType": "string",
          "name": "",
          "type": "string"
        }
      ],
      "stateMutability": "view",
      "type": "function"
    },
    {
      "inputs": [
        {
          "internalType": "uint256",
          "name": "tokenId",
          "type": "uint256"
        }
      ],
      "name": "tokenURI",
      "outputs": [
        {
          "internalType": "string",
          "name": "",
          "type": "string"
        }
      ],
      "stateMutability": "view",
      "type": "function"
    },
    {
      "inputs": [
        {
          "internalType": "address",
          "name": "from",
          "type": "address"
        },
        {
          "internalType": "address",
          "name": "to",
          "type": "address"
        },
        {
          "internalType": "uint256",
          "name": "tokenId",
          "type": "uint256"
        }
      ],
      "name": "transferFrom",
      "outputs": [],
      "stateMutability": "nonpayable",
      "type": "function"
    },
    {
      "inputs": [
        {
          "internalType": "address",
          "name": "newOwner",
          "type": "address"
        }
      ],
      "name": "transferOwnership",
      "outputs": [],
      "stateMutability": "nonpayable",
      "type": "function"
    }
  ],
  "bytecode": "0x60806040523480156200001157600080fd5b506040518060400160405280600981526020017f4861636b4c6f64676500000000000000000000000000000000000000000000008152506040518060400160405280600281526020017f484c000000000000000000000000000000000000000000000000000000000000815250816000908051906020019062000096929190620001a6565b508060019080519060200190620000af929190620001a6565b505050620000d2620000c6620000d860201b60201c565b620000e060201b60201c565b620002bb565b600033905090565b6000600760009054906101000a900473ffffffffffffffffffffffffffffffffffffffff16905081600760006101000a81548173ffffffffffffffffffffffffffffffffffffffff021916908373ffffffffffffffffffffffffffffffffffffffff1602179055508173ffffffffffffffffffffffffffffffffffffffff168173ffffffffffffffffffffffffffffffffffffffff167f8be0079c531659141344cd1fd0a4f28419497f9722a3daafe3b4186f6b6457e060405160405180910390a35050565b828054620001b49062000285565b90600052602060002090601f016020900481019282620001d8576000855562000224565b82601f10620001f357805160ff191683800117855562000224565b8280016001018555821562000224579182015b828111156200022357825182559160200191906001019062000206565b5b50905062000233919062000237565b5090565b5b808211156200025257600081600090555060010162000238565b5090565b7f4e487b7100000000000000000000000000000000000000000000000000000000600052602260045260246000fd5b600060028204905060018216806200029e57607f821691505b60208210811415620002b557620002b462000256565b5b50919050565b612fe580620002cb6000396000f3fe608060405234801561001057600080fd5b506004361061010b5760003560e01c806370a08231116100a2578063a22cb46511610071578063a22cb465146102b8578063b88d4fde146102d4578063c87b56dd146102f0578063e985e9c514610320578063f2fde38b146103505761010b565b806370a0823114610242578063715018a6146102725780638da5cb5b1461027c57806395d89b411461029a5761010b565b8063110bcd45116100de578063110bcd45146101aa57806323b872dd146101da57806342842e0e146101f65780636352211e146102125761010b565b806301ffc9a71461011057806306fdde0314610140578063081812fc1461015e578063095ea7b31461018e575b600080fd5b61012a60048036038101906101259190611c49565b61036c565b6040516101379190611c91565b60405180910390f35b61014861044e565b6040516101559190611d45565b60405180910390f35b61017860048036038101906101739190611d9d565b6104e0565b6040516101859190611e0b565b60405180910390f35b6101a860048036038101906101a39190611e52565b610565565b005b6101c460048036038101906101bf9190611fc7565b61067d565b6040516101d19190612032565b60405180910390f35b6101f460048036038101906101ef919061204d565b610731565b005b610210600480360381019061020b919061204d565b610791565b005b61022c60048036038101906102279190611d9d565b6107b1565b6040516102399190611e0b565b60405180910390f35b61025c600480360381019061025791906120a0565b610863565b6040516102699190612032565b60405180910390f35b61027a61091b565b005b6102846109a3565b6040516102919190611e0b565b60405180910390f35b6102a26109cd565b6040516102af9190611d45565b60405180910390f35b6102d260048036038101906102cd91906120f9565b610a5f565b005b6102ee60048036038101906102e991906121da565b610a75565b005b61030a60048036038101906103059190611d9d565b610ad7565b6040516103179190611d45565b60405180910390f35b61033a6004803603810190610335919061225d565b610c29565b6040516103479190611c91565b60405180910390f35b61036a600480360381019061036591906120a0565b610cbd565b005b60007f80ac58cd000000000000000000000000000000000000000000000000000000007bffffffffffffffffffffffffffffffffffffffffffffffffffffffff1916827bffffffffffffffffffffffffffffffffffffffffffffffffffffffff1916148061043757507f5b5e139f000000000000000000000000000000000000000000000000000000007bffffffffffffffffffffffffffffffffffffffffffffffffffffffff1916827bffffffffffffffffffffffffffffffffffffffffffffffffffffffff1916145b80610447575061044682610db5565b5b9050919050565b60606000805461045d906122cc565b80601f0160208091040260200160405190810160405280929190818152602001828054610489906122cc565b80156104d65780601f106104ab576101008083540402835291602001916104d6565b820191906000526020600020905b8154815290600101906020018083116104b957829003601f168201915b5050505050905090565b60006104eb82610e1f565b61052a576040517f08c379a000000000000000000000000000000000000000000000000000000000815260040161052190612370565b60405180910390fd5b6004600083815260200190815260200160002060009054906101000a900473ffffffffffffffffffffffffffffffffffffffff169050919050565b6000610570826107b1565b90508073ffffffffffffffffffffffffffffffffffffffff168373ffffffffffffffffffffffffffffffffffffffff1614156105e1576040517f08c379a00000000000000000000000000000000000000000000000000000000081526004016105d890612402565b60405180910390fd5b8073ffffffffffffffffffffffffffffffffffffffff16610600610e8b565b73ffffffffffffffffffffffffffffffffffffffff16148061062f575061062e81610629610e8b565b610c29565b5b61066e576040517f08c379a000000000000000000000000000000000000000000000000000000000815260040161066590612494565b60405180910390fd5b6106788383610e93565b505050565b6000610687610e8b565b73ffffffffffffffffffffffffffffffffffffffff166106a56109a3565b73ffffffffffffffffffffffffffffffffffffffff16146106fb576040517f08c379a00000000000000000000000000000000000000000000000000000000081526004016106f290612500565b60405180910390fd5b6107056008610f4c565b60006107116008610f62565b905061071d8482610f70565b610727818461113e565b8091505092915050565b61074261073c610e8b565b826111b2565b610781576040517f08c379a000000000000000000000000000000000000000000000000000000000815260040161077890612592565b60405180910390fd5b61078c838383611290565b505050565b6107ac83838360405180602001604052806000815250610a75565b505050565b6000806002600084815260200190815260200160002060009054906101000a900473ffffffffffffffffffffffffffffffffffffffff169050600073ffffffffffffffffffffffffffffffffffffffff168173ffffffffffffffffffffffffffffffffffffffff16141561085a576040517f08c379a000000000000000000000000000000000000000000000000000000000815260040161085190612624565b60405180910390fd5b80915050919050565b60008073ffffffffffffffffffffffffffffffffffffffff168273ffffffffffffffffffffffffffffffffffffffff1614156108d4576040517f08c379a00000000000000000000000000000000000000000000000000000000081526004016108cb906126b6565b60405180910390fd5b600360008373ffffffffffffffffffffffffffffffffffffffff1673ffffffffffffffffffffffffffffffffffffffff168152602001908152602001600020549050919050565b610923610e8b565b73ffffffffffffffffffffffffffffffffffffffff166109416109a3565b73ffffffffffffffffffffffffffffffffffffffff1614610997576040517f08c379a000000000000000000000000000000000000000000000000000000000815260040161098e90612500565b60405180910390fd5b6109a160006114ec565b565b6000600760009054906101000a900473ffffffffffffffffffffffffffffffffffffffff16905090565b6060600180546109dc906122cc565b80601f0160208091040260200160405190810160405280929190818152602001828054610a08906122cc565b8015610a555780601f10610a2a57610100808354040283529160200191610a55565b820191906000526020600020905b815481529060010190602001808311610a3857829003601f168201915b5050505050905090565b610a71610a6a610e8b565b83836115b2565b5050565b610a86610a80610e8b565b836111b2565b610ac5576040517f08c379a0000000000000000000000000000000000000000000000000000000008152600401610abc90612592565b60405180910390fd5b610ad18484848461171f565b50505050565b6060610ae282610e1f565b610b21576040517f08c379a0000000000000000000000000000000000000000000000000000000008152600401610b1890612748565b60405180910390fd5b6000600660008481526020019081526020016000208054610b41906122cc565b80601f0160208091040260200160405190810160405280929190818152602001828054610b6d906122cc565b8015610bba5780601f10610b8f57610100808354040283529160200191610bba565b820191906000526020600020905b815481529060010190602001808311610b9d57829003601f168201915b505050505090506000610bcb61177b565b9050600081511415610be1578192505050610c24565b600082511115610c16578082604051602001610bfe9291906127a4565b60405160208183030381529060405292505050610c24565b610c1f84611792565b925050505b919050565b6000600560008473ffffffffffffffffffffffffffffffffffffffff1673ffffffffffffffffffffffffffffffffffffffff16815260200190815260200160002060008373ffffffffffffffffffffffffffffffffffffffff1673ffffffffffffffffffffffffffffffffffffffff16815260200190815260200160002060009054906101000a900460ff16905092915050565b610cc5610e8b565b73ffffffffffffffffffffffffffffffffffffffff16610ce36109a3565b73ffffffffffffffffffffffffffffffffffffffff1614610d39576040517f08c379a0000000000000000000000000000000000000000000000000000000008152600401610d3090612500565b60405180910390fd5b600073ffffffffffffffffffffffffffffffffffffffff168173ffffffffffffffffffffffffffffffffffffffff161415610da9576040517f08c379a0000000000000000000000000000000000000000000000000000000008152600401610da09061283a565b60405180910390fd5b610db2816114ec565b50565b60007f01ffc9a7000000000000000000000000000000000000000000000000000000007bffffffffffffffffffffffffffffffffffffffffffffffffffffffff1916827bffffffffffffffffffffffffffffffffffffffffffffffffffffffff1916149050919050565b60008073ffffffffffffffffffffffffffffffffffffffff166002600084815260200190815260200160002060009054906101000a900473ffffffffffffffffffffffffffffffffffffffff1673ffffffffffffffffffffffffffffffffffffffff1614159050919050565b600033905090565b816004600083815260200190815260200160002060006101000a81548173ffffffffffffffffffffffffffffffffffffffff021916908373ffffffffffffffffffffffffffffffffffffffff160217905550808273ffffffffffffffffffffffffffffffffffffffff16610f06836107b1565b73ffffffffffffffffffffffffffffffffffffffff167f8c5be1e5ebec7d5bd14f71427d1e84f3dd0314c0f7b2291e5b200ac8c7c3b92560405160405180910390a45050565b6001816000016000828254019250508190555050565b600081600001549050919050565b600073ffffffffffffffffffffffffffffffffffffffff168273ffffffffffffffffffffffffffffffffffffffff161415610fe0576040517f08c379a0000000000000000000000000000000000000000000000000000000008152600401610fd7906128a6565b60405180910390fd5b610fe981610e1f565b15611029576040517f08c379a000000000000000000000000000000000000000000000000000000000815260040161102090612912565b60405180910390fd5b61103560008383611839565b6001600360008473ffffffffffffffffffffffffffffffffffffffff1673ffffffffffffffffffffffffffffffffffffffff16815260200190815260200160002060008282546110859190612961565b92505081905550816002600083815260200190815260200160002060006101000a81548173ffffffffffffffffffffffffffffffffffffffff021916908373ffffffffffffffffffffffffffffffffffffffff160217905550808273ffffffffffffffffffffffffffffffffffffffff16600073ffffffffffffffffffffffffffffffffffffffff167fddf252ad1be2c89b69c2b068fc378daa952ba7f163c4a11628f55a4df523b3ef60405160405180910390a45050565b61114782610e1f565b611186576040517f08c379a000000000000000000000000000000000000000000000000000000000815260040161117d90612a29565b60405180910390fd5b806006600084815260200190815260200160002090805190602001906111ad929190611b3a565b505050565b60006111bd82610e1f565b6111fc576040517f08c379a00000000000000000000000000000000000000000000000000000000081526004016111f390612abb565b60405180910390fd5b6000611207836107b1565b90508073ffffffffffffffffffffffffffffffffffffffff168473ffffffffffffffffffffffffffffffffffffffff16148061127657508373ffffffffffffffffffffffffffffffffffffffff1661125e846104e0565b73ffffffffffffffffffffffffffffffffffffffff16145b8061128757506112868185610c29565b5b91505092915050565b8273ffffffffffffffffffffffffffffffffffffffff166112b0826107b1565b73ffffffffffffffffffffffffffffffffffffffff1614611306576040517f08c379a00000000000000000000000000000000000000000000000000000000081526004016112fd90612b4d565b60405180910390fd5b600073ffffffffffffffffffffffffffffffffffffffff168273ffffffffffffffffffffffffffffffffffffffff161415611376576040517f08c379a000000000000000000000000000000000000000000000000000000000815260040161136d90612bdf565b60405180910390fd5b611381838383611839565b61138c600082610e93565b6001600360008573ffffffffffffffffffffffffffffffffffffffff1673ffffffffffffffffffffffffffffffffffffffff16815260200190815260200160002060008282546113dc9190612bff565b925050819055506001600360008473ffffffffffffffffffffffffffffffffffffffff1673ffffffffffffffffffffffffffffffffffffffff16815260200190815260200160002060008282546114339190612961565b92505081905550816002600083815260200190815260200160002060006101000a81548173ffffffffffffffffffffffffffffffffffffffff021916908373ffffffffffffffffffffffffffffffffffffffff160217905550808273ffffffffffffffffffffffffffffffffffffffff168473ffffffffffffffffffffffffffffffffffffffff167fddf252ad1be2c89b69c2b068fc378daa952ba7f163c4a11628f55a4df523b3ef60405160405180910390a4505050565b6000600760009054906101000a900473ffffffffffffffffffffffffffffffffffffffff16905081600760006101000a81548173ffffffffffffffffffffffffffffffffffffffff021916908373ffffffffffffffffffffffffffffffffffffffff1602179055508173ffffffffffffffffffffffffffffffffffffffff168173ffffffffffffffffffffffffffffffffffffffff167f8be0079c531659141344cd1fd0a4f28419497f9722a3daafe3b4186f6b6457e060405160405180910390a35050565b8173ffffffffffffffffffffffffffffffffffffffff168373ffffffffffffffffffffffffffffffffffffffff161415611621576040517f08c379a000000000000000000000000000000000000000000000000000000000815260040161161890612c7f565b60405180910390fd5b80600560008573ffffffffffffffffffffffffffffffffffffffff1673ffffffffffffffffffffffffffffffffffffffff16815260200190815260200160002060008473ffffffffffffffffffffffffffffffffffffffff1673ffffffffffffffffffffffffffffffffffffffff16815260200190815260200160002060006101000a81548160ff0219169083151502179055508173ffffffffffffffffffffffffffffffffffffffff168373ffffffffffffffffffffffffffffffffffffffff167f17307eab39ab6107e8899845ad3d59bd9653f200f220920489ca2b5937696c31836040516117129190611c91565b60405180910390a3505050565b61172a848484611290565b6117368484848461183e565b611775576040517f08c379a000000000000000000000000000000000000000000000000000000000815260040161176c90612d11565b60405180910390fd5b50505050565b606060405180602001604052806000815250905090565b606061179d82610e1f565b6117dc576040517f08c379a00000000000000000000000000000000000000000000000000000000081526004016117d390612da3565b60405180910390fd5b60006117e661177b565b905060008151116118065760405180602001604052806000815250611831565b80611810846119c6565b6040516020016118219291906127a4565b6040516020818303038152906040525b915050919050565b505050565b600061185f8473ffffffffffffffffffffffffffffffffffffffff16611b27565b156119b9578373ffffffffffffffffffffffffffffffffffffffff1663150b7a02611888610e8b565b8786866040518563ffffffff1660e01b81526004016118aa9493929190612e18565b6020604051808303816000875af19250505080156118e657506040513d601f19601f820116820180604052508101906118e39190612e79565b60015b611969573d8060008114611916576040519150601f19603f3d011682016040523d82523d6000602084013e61191b565b606091505b50600081511415611961576040517f08c379a000000000000000000000000000000000000000000000000000000000815260040161195890612d11565b60405180910390fd5b805181602001fd5b63150b7a0260e01b7bffffffffffffffffffffffffffffffffffffffffffffffffffffffff1916817bffffffffffffffffffffffffffffffffffffffffffffffffffffffff1916149150506119be565b600190505b949350505050565b60606000821415611a0e576040518060400160405280600181526020017f30000000000000000000000000000000000000000000000000000000000000008152509050611b22565b600082905060005b60008214611a40578080611a2990612ea6565b915050600a82611a399190612f1e565b9150611a16565b60008167ffffffffffffffff811115611a5c57611a5b611e9c565b5b6040519080825280601f01601f191660200182016040528015611a8e5781602001600182028036833780820191505090505b5090505b60008514611b1b57600182611aa79190612bff565b9150600a85611ab69190612f4f565b6030611ac29190612961565b60f81b818381518110611ad857611ad7612f80565b5b60200101907effffffffffffffffffffffffffffffffffffffffffffffffffffffffffffff1916908160001a905350600a85611b149190612f1e565b9450611a92565b8093505050505b919050565b600080823b905060008111915050919050565b828054611b46906122cc565b90600052602060002090601f016020900481019282611b685760008555611baf565b82601f10611b8157805160ff1916838001178555611baf565b82800160010185558215611baf579182015b82811115611bae578251825591602001919060010190611b93565b5b509050611bbc9190611bc0565b5090565b5b80821115611bd9576000816000905550600101611bc1565b5090565b6000604051905090565b600080fd5b600080fd5b60007fffffffff0000000000000000000000000000000000000000000000000000000082169050919050565b611c2681611bf1565b8114611c3157600080fd5b50565b600081359050611c4381611c1d565b92915050565b600060208284031215611c5f57611c5e611be7565b5b6000611c6d84828501611c34565b91505092915050565b60008115159050919050565b611c8b81611c76565b82525050565b6000602082019050611ca66000830184611c82565b92915050565b600081519050919050565b600082825260208201905092915050565b60005b83811015611ce6578082015181840152602081019050611ccb565b83811115611cf5576000848401525b50505050565b6000601f19601f8301169050919050565b6000611d1782611cac565b611d218185611cb7565b9350611d31818560208601611cc8565b611d3a81611cfb565b840191505092915050565b60006020820190508181036000830152611d5f8184611d0c565b905092915050565b6000819050919050565b611d7a81611d67565b8114611d8557600080fd5b50565b600081359050611d9781611d71565b92915050565b600060208284031215611db357611db2611be7565b5b6000611dc184828501611d88565b91505092915050565b600073ffffffffffffffffffffffffffffffffffffffff82169050919050565b6000611df582611dca565b9050919050565b611e0581611dea565b82525050565b6000602082019050611e206000830184611dfc565b92915050565b611e2f81611dea565b8114611e3a57600080fd5b50565b600081359050611e4c81611e26565b92915050565b60008060408385031215611e6957611e68611be7565b5b6000611e7785828601611e3d565b9250506020611e8885828601611d88565b9150509250929050565b600080fd5b600080fd5b7f4e487b7100000000000000000000000000000000000000000000000000000000600052604160045260246000fd5b611ed482611cfb565b810181811067ffffffffffffffff82111715611ef357611ef2611e9c565b5b80604052505050565b6000611f06611bdd565b9050611f128282611ecb565b919050565b600067ffffffffffffffff821115611f3257611f31611e9c565b5b611f3b82611cfb565b9050602081019050919050565b82818337600083830152505050565b6000611f6a611f6584611f17565b611efc565b905082815260208101848484011115611f8657611f85611e97565b5b611f91848285611f48565b509392505050565b600082601f830112611fae57611fad611e92565b5b8135611fbe848260208601611f57565b91505092915050565b60008060408385031215611fde57611fdd611be7565b5b6000611fec85828601611e3d565b925050602083013567ffffffffffffffff81111561200d5761200c611bec565b5b61201985828601611f99565b9150509250929050565b61202c81611d67565b82525050565b60006020820190506120476000830184612023565b92915050565b60008060006060848603121561206657612065611be7565b5b600061207486828701611e3d565b935050602061208586828701611e3d565b925050604061209686828701611d88565b9150509250925092565b6000602082840312156120b6576120b5611be7565b5b60006120c484828501611e3d565b91505092915050565b6120d681611c76565b81146120e157600080fd5b50565b6000813590506120f3816120cd565b92915050565b600080604083850312156121105761210f611be7565b5b600061211e85828601611e3d565b925050602061212f858286016120e4565b9150509250929050565b600067ffffffffffffffff82111561215457612153611e9c565b5b61215d82611cfb565b9050602081019050919050565b600061217d61217884612139565b611efc565b90508281526020810184848401111561219957612198611e97565b5b6121a4848285611f48565b509392505050565b600082601f8301126121c1576121c0611e92565b5b81356121d184826020860161216a565b91505092915050565b600080600080608085870312156121f4576121f3611be7565b5b600061220287828801611e3d565b945050602061221387828801611e3d565b935050604061222487828801611d88565b925050606085013567ffffffffffffffff81111561224557612244611bec565b5b612251878288016121ac565b91505092959194509250565b6000806040838503121561227457612273611be7565b5b600061228285828601611e3d565b925050602061229385828601611e3d565b9150509250929050565b7f4e487b7100000000000000000000000000000000000000000000000000000000600052602260045260246000fd5b600060028204905060018216806122e457607f821691505b602082108114156122f8576122f761229d565b5b50919050565b7f4552433732313a20617070726f76656420717565727920666f72206e6f6e657860008201527f697374656e7420746f6b656e0000000000000000000000000000000000000000602082015250565b600061235a602c83611cb7565b9150612365826122fe565b604082019050919050565b600060208201905081810360008301526123898161234d565b9050919050565b7f4552433732313a20617070726f76616c20746f2063757272656e74206f776e6560008201527f7200000000000000000000000000000000000000000000000000000000000000602082015250565b60006123ec602183611cb7565b91506123f782612390565b604082019050919050565b6000602082019050818103600083015261241b816123df565b9050919050565b7f4552433732313a20617070726f76652063616c6c6572206973206e6f74206f7760008201527f6e6572206e6f7220617070726f76656420666f7220616c6c0000000000000000602082015250565b600061247e603883611cb7565b915061248982612422565b604082019050919050565b600060208201905081810360008301526124ad81612471565b9050919050565b7f4f776e61626c653a2063616c6c6572206973206e6f7420746865206f776e6572600082015250565b60006124ea602083611cb7565b91506124f5826124b4565b602082019050919050565b60006020820190508181036000830152612519816124dd565b9050919050565b7f4552433732313a207472616e736665722063616c6c6572206973206e6f74206f60008201527f776e6572206e6f7220617070726f766564000000000000000000000000000000602082015250565b600061257c603183611cb7565b915061258782612520565b604082019050919050565b600060208201905081810360008301526125ab8161256f565b9050919050565b7f4552433732313a206f776e657220717565727920666f72206e6f6e657869737460008201527f656e7420746f6b656e0000000000000000000000000000000000000000000000602082015250565b600061260e602983611cb7565b9150612619826125b2565b604082019050919050565b6000602082019050818103600083015261263d81612601565b9050919050565b7f4552433732313a2062616c616e636520717565727920666f7220746865207a6560008201527f726f206164647265737300000000000000000000000000000000000000000000602082015250565b60006126a0602a83611cb7565b91506126ab82612644565b604082019050919050565b600060208201905081810360008301526126cf81612693565b9050919050565b7f45524337323155524953746f726167653a2055524920717565727920666f722060008201527f6e6f6e6578697374656e7420746f6b656e000000000000000000000000000000602082015250565b6000612732603183611cb7565b915061273d826126d6565b604082019050919050565b6000602082019050818103600083015261276181612725565b9050919050565b600081905092915050565b600061277e82611cac565b6127888185612768565b9350612798818560208601611cc8565b80840191505092915050565b60006127b08285612773565b91506127bc8284612773565b91508190509392505050565b7f4f776e61626c653a206e6577206f776e657220697320746865207a65726f206160008201527f6464726573730000000000000000000000000000000000000000000000000000602082015250565b6000612824602683611cb7565b915061282f826127c8565b604082019050919050565b6000602082019050818103600083015261285381612817565b9050919050565b7f4552433732313a206d696e7420746f20746865207a65726f2061646472657373600082015250565b6000612890602083611cb7565b915061289b8261285a565b602082019050919050565b600060208201905081810360008301526128bf81612883565b9050919050565b7f4552433732313a20746f6b656e20616c7265616479206d696e74656400000000600082015250565b60006128fc601c83611cb7565b9150612907826128c6565b602082019050919050565b6000602082019050818103600083015261292b816128ef565b9050919050565b7f4e487b7100000000000000000000000000000000000000000000000000000000600052601160045260246000fd5b600061296c82611d67565b915061297783611d67565b9250827fffffffffffffffffffffffffffffffffffffffffffffffffffffffffffffffff038211156129ac576129ab612932565b5b828201905092915050565b7f45524337323155524953746f726167653a2055524920736574206f66206e6f6e60008201527f6578697374656e7420746f6b656e000000000000000000000000000000000000602082015250565b6000612a13602e83611cb7565b9150612a1e826129b7565b604082019050919050565b60006020820190508181036000830152612a4281612a06565b9050919050565b7f4552433732313a206f70657261746f7220717565727920666f72206e6f6e657860008201527f697374656e7420746f6b656e0000000000000000000000000000000000000000602082015250565b6000612aa5602c83611cb7565b9150612ab082612a49565b604082019050919050565b60006020820190508181036000830152612ad481612a98565b9050919050565b7f4552433732313a207472616e73666572206f6620746f6b656e2074686174206960008201527f73206e6f74206f776e0000000000000000000000000000000000000000000000602082015250565b6000612b37602983611cb7565b9150612b4282612adb565b604082019050919050565b60006020820190508181036000830152612b6681612b2a565b9050919050565b7f4552433732313a207472616e7366657220746f20746865207a65726f2061646460008201527f7265737300000000000000000000000000000000000000000000000000000000602082015250565b6000612bc9602483611cb7565b9150612bd482612b6d565b604082019050919050565b60006020820190508181036000830152612bf881612bbc565b9050919050565b6000612c0a82611d67565b9150612c1583611d67565b925082821015612c2857612c27612932565b5b828203905092915050565b7f4552433732313a20617070726f766520746f2063616c6c657200000000000000600082015250565b6000612c69601983611cb7565b9150612c7482612c33565b602082019050919050565b60006020820190508181036000830152612c9881612c5c565b9050919050565b7f4552433732313a207472616e7366657220746f206e6f6e20455243373231526560008201527f63656976657220696d706c656d656e7465720000000000000000000000000000602082015250565b6000612cfb603283611cb7565b9150612d0682612c9f565b604082019050919050565b60006020820190508181036000830152612d2a81612cee565b9050919050565b7f4552433732314d657461646174613a2055524920717565727920666f72206e6f60008201527f6e6578697374656e7420746f6b656e0000000000000000000000000000000000602082015250565b6000612d8d602f83611cb7565b9150612d9882612d31565b604082019050919050565b60006020820190508181036000830152612dbc81612d80565b9050919050565b600081519050919050565b600082825260208201905092915050565b6000612dea82612dc3565b612df48185612dce565b9350612e04818560208601611cc8565b612e0d81611cfb565b840191505092915050565b6000608082019050612e2d6000830187611dfc565b612e3a6020830186611dfc565b612e476040830185612023565b8181036060830152612e598184612ddf565b905095945050505050565b600081519050612e7381611c1d565b92915050565b600060208284031215612e8f57612e8e611be7565b5b6000612e9d84828501612e64565b91505092915050565b6000612eb182611d67565b91507fffffffffffffffffffffffffffffffffffffffffffffffffffffffffffffffff821415612ee457612ee3612932565b5b600182019050919050565b7f4e487b7100000000000000000000000000000000000000000000000000000000600052601260045260246000fd5b6000612f2982611d67565b9150612f3483611d67565b925082612f4457612f43612eef565b5b828204905092915050565b6000612f5a82611d67565b9150612f6583611d67565b925082612f7557612f74612eef565b5b828206905092915050565b7f4e487b7100000000000000000000000000000000000000000000000000000000600052603260045260246000fdfea2646970667358221220c92b48657d805694659ce4650ea697efb1f1bef651dba5aba8b5cf832ebe578164736f6c634300080a0033",
  "linkReferences": {},
  "deployedLinkReferences": {}
}