{
  "_format": "hh-sol-artifact-1",
  "contractName": "HackLodgeNFT",
  "sourceName": "contracts/HackLodgeNFT.sol",
  "abi": [
    {
      "inputs": [],
      "stateMutability": "nonpayable",
      "type": "constructor"
    },
    {
      "anonymous": false,
      "inputs": [
        {
          "indexed": true,
          "internalType": "address",
          "name": "owner",
          "type": "address"
        },
        {
          "indexed": true,
          "internalType": "address",
          "name": "approved",
          "type": "address"
        },
        {
          "indexed": true,
          "internalType": "uint256",
          "name": "tokenId",
          "type": "uint256"
        }
      ],
      "name": "Approval",
      "type": "event"
    },
    {
      "anonymous": false,
      "inputs": [
        {
          "indexed": true,
          "internalType": "address",
          "name": "owner",
          "type": "address"
        },
        {
          "indexed": true,
          "internalType": "address",
          "name": "operator",
          "type": "address"
        },
        {
          "indexed": false,
          "internalType": "bool",
          "name": "approved",
          "type": "bool"
        }
      ],
      "name": "ApprovalForAll",
      "type": "event"
    },
    {
      "anonymous": false,
      "inputs": [
        {
          "indexed": true,
          "internalType": "address",
          "name": "previousOwner",
          "type": "address"
        },
        {
          "indexed": true,
          "internalType": "address",
          "name": "newOwner",
          "type": "address"
        }
      ],
      "name": "OwnershipTransferred",
      "type": "event"
    },
    {
      "anonymous": false,
      "inputs": [
        {
          "indexed": true,
          "internalType": "address",
          "name": "from",
          "type": "address"
        },
        {
          "indexed": true,
          "internalType": "address",
          "name": "to",
          "type": "address"
        },
        {
          "indexed": true,
          "internalType": "uint256",
          "name": "tokenId",
          "type": "uint256"
        }
      ],
      "name": "Transfer",
      "type": "event"
    },
    {
      "inputs": [
        {
          "internalType": "address",
          "name": "to",
          "type": "address"
        },
        {
          "internalType": "uint256",
          "name": "tokenId",
          "type": "uint256"
        }
      ],
      "name": "approve",
      "outputs": [],
      "stateMutability": "nonpayable",
      "type": "function"
    },
    {
      "inputs": [
        {
          "internalType": "address",
          "name": "owner",
          "type": "address"
        }
      ],
      "name": "balanceOf",
      "outputs": [
        {
          "internalType": "uint256",
          "name": "",
          "type": "uint256"
        }
      ],
      "stateMutability": "view",
      "type": "function"
    },
    {
      "inputs": [
        {
          "internalType": "uint256",
          "name": "tokenId",
          "type": "uint256"
        }
      ],
      "name": "getApproved",
      "outputs": [
        {
          "internalType": "address",
          "name": "",
          "type": "address"
        }
      ],
      "stateMutability": "view",
      "type": "function"
    },
    {
      "inputs": [
        {
          "internalType": "address",
          "name": "owner",
          "type": "address"
        },
        {
          "internalType": "address",
          "name": "operator",
          "type": "address"
        }
      ],
      "name": "isApprovedForAll",
      "outputs": [
        {
          "internalType": "bool",
          "name": "",
          "type": "bool"
        }
      ],
      "stateMutability": "view",
      "type": "function"
    },
    {
      "inputs": [
        {
          "internalType": "address",
          "name": "to",
          "type": "address"
        },
        {
          "internalType": "string",
          "name": "tokenUri",
          "type": "string"
        }
      ],
      "name": "mintItem",
      "outputs": [
        {
          "internalType": "uint256",
          "name": "",
          "type": "uint256"
        }
      ],
      "stateMutability": "nonpayable",
      "type": "function"
    },
    {
      "inputs": [],
      "name": "name",
      "outputs": [
        {
          "internalType": "string",
          "name": "",
          "type": "string"
        }
      ],
      "stateMutability": "view",
      "type": "function"
    },
    {
      "inputs": [],
      "name": "owner",
      "outputs": [
        {
          "internalType": "address",
          "name": "",
          "type": "address"
        }
      ],
      "stateMutability": "view",
      "type": "function"
    },
    {
      "inputs": [
        {
          "internalType": "uint256",
          "name": "tokenId",
          "type": "uint256"
        }
      ],
      "name": "ownerOf",
      "outputs": [
        {
          "internalType": "address",
          "name": "",
          "type": "address"
        }
      ],
      "stateMutability": "view",
      "type": "function"
    },
    {
      "inputs": [],
      "name": "renounceOwnership",
      "outputs": [],
      "stateMutability": "nonpayable",
      "type": "function"
    },
    {
      "inputs": [
        {
          "internalType": "address",
          "name": "from",
          "type": "address"
        },
        {
          "internalType": "address",
          "name": "to",
          "type": "address"
        },
        {
          "internalType": "uint256",
          "name": "tokenId",
          "type": "uint256"
        }
      ],
      "name": "safeTransferFrom",
      "outputs": [],
      "stateMutability": "nonpayable",
      "type": "function"
    },
    {
      "inputs": [
        {
          "internalType": "address",
          "name": "from",
          "type": "address"
        },
        {
          "internalType": "address",
          "name": "to",
          "type": "address"
        },
        {
          "internalType": "uint256",
          "name": "tokenId",
          "type": "uint256"
        },
        {
          "internalType": "bytes",
          "name": "_data",
          "type": "bytes"
        }
      ],
      "name": "safeTransferFrom",
      "outputs": [],
      "stateMutability": "nonpayable",
      "type": "function"
    },
    {
      "inputs": [
        {
          "internalType": "address",
          "name": "operator",
          "type": "address"
        },
        {
          "internalType": "bool",
          "name": "approved",
          "type": "bool"
        }
      ],
      "name": "setApprovalForAll",
      "outputs": [],
      "stateMutability": "nonpayable",
      "type": "function"
    },
    {
      "inputs": [
        {
          "internalType": "bytes4",
          "name": "interfaceId",
          "type": "bytes4"
        }
      ],
      "name": "supportsInterface",
      "outputs": [
        {
          "internalType": "bool",
          "name": "",
          "type": "bool"
        }
      ],
      "stateMutability": "view",
      "type": "function"
    },
    {
      "inputs": [],
      "name": "symbol",
      "outputs": [
        {
          "internalType": "string",
          "name": "",
          "type": "string"
        }
      ],
      "stateMutability": "view",
      "type": "function"
    },
    {
      "inputs": [
        {
          "internalType": "uint256",
          "name": "index",
          "type": "uint256"
        }
      ],
      "name": "tokenByIndex",
      "outputs": [
        {
          "internalType": "uint256",
          "name": "",
          "type": "uint256"
        }
      ],
      "stateMutability": "view",
      "type": "function"
    },
    {
      "inputs": [
        {
          "internalType": "address",
          "name": "owner",
          "type": "address"
        },
        {
          "internalType": "uint256",
          "name": "index",
          "type": "uint256"
        }
      ],
      "name": "tokenOfOwnerByIndex",
      "outputs": [
        {
          "internalType": "uint256",
          "name": "",
          "type": "uint256"
        }
      ],
      "stateMutability": "view",
      "type": "function"
    },
    {
      "inputs": [
        {
          "internalType": "uint256",
          "name": "tokenId",
          "type": "uint256"
        }
      ],
      "name": "tokenURI",
      "outputs": [
        {
          "internalType": "string",
          "name": "",
          "type": "string"
        }
      ],
      "stateMutability": "view",
      "type": "function"
    },
    {
      "inputs": [],
      "name": "totalSupply",
      "outputs": [
        {
          "internalType": "uint256",
          "name": "",
          "type": "uint256"
        }
      ],
      "stateMutability": "view",
      "type": "function"
    },
    {
      "inputs": [
        {
          "internalType": "address",
          "name": "from",
          "type": "address"
        },
        {
          "internalType": "address",
          "name": "to",
          "type": "address"
        },
        {
          "internalType": "uint256",
          "name": "tokenId",
          "type": "uint256"
        }
      ],
      "name": "transferFrom",
      "outputs": [],
      "stateMutability": "nonpayable",
      "type": "function"
    },
    {
      "inputs": [
        {
          "internalType": "address",
          "name": "newOwner",
          "type": "address"
        }
      ],
      "name": "transferOwnership",
      "outputs": [],
      "stateMutability": "nonpayable",
      "type": "function"
    }
  ],
  "bytecode": "0x60806040523480156200001157600080fd5b506040518060400160405280600981526020017f4861636b4c6f64676500000000000000000000000000000000000000000000008152506040518060400160405280600281526020017f484c000000000000000000000000000000000000000000000000000000000000815250816000908051906020019062000096929190620001a6565b508060019080519060200190620000af929190620001a6565b505050620000d2620000c6620000d860201b60201c565b620000e060201b60201c565b620002bb565b600033905090565b6000600b60009054906101000a900473ffffffffffffffffffffffffffffffffffffffff16905081600b60006101000a81548173ffffffffffffffffffffffffffffffffffffffff021916908373ffffffffffffffffffffffffffffffffffffffff1602179055508173ffffffffffffffffffffffffffffffffffffffff168173ffffffffffffffffffffffffffffffffffffffff167f8be0079c531659141344cd1fd0a4f28419497f9722a3daafe3b4186f6b6457e060405160405180910390a35050565b828054620001b49062000256565b90600052602060002090601f016020900481019282620001d8576000855562000224565b82601f10620001f357805160ff191683800117855562000224565b8280016001018555821562000224579182015b828111156200022357825182559160200191906001019062000206565b5b50905062000233919062000237565b5090565b5b808211156200025257600081600090555060010162000238565b5090565b600060028204905060018216806200026f57607f821691505b602082108114156200028657620002856200028c565b5b50919050565b7f4e487b7100000000000000000000000000000000000000000000000000000000600052602260045260246000fd5b6136ec80620002cb6000396000f3fe608060405234801561001057600080fd5b506004361061012c5760003560e01c80636352211e116100ad578063a22cb46511610071578063a22cb46514610357578063b88d4fde14610373578063c87b56dd1461038f578063e985e9c5146103bf578063f2fde38b146103ef5761012c565b80636352211e146102b157806370a08231146102e1578063715018a6146103115780638da5cb5b1461031b57806395d89b41146103395761012c565b806318160ddd116100f457806318160ddd146101fb57806323b872dd146102195780632f745c591461023557806342842e0e146102655780634f6ccce7146102815761012c565b806301ffc9a71461013157806306fdde0314610161578063081812fc1461017f578063095ea7b3146101af578063110bcd45146101cb575b600080fd5b61014b6004803603810190610146919061268e565b61040b565b6040516101589190612fc4565b60405180910390f35b61016961041d565b6040516101769190612fdf565b60405180910390f35b610199600480360381019061019491906126e0565b6104af565b6040516101a69190612f5d565b60405180910390f35b6101c960048036038101906101c49190612652565b610534565b005b6101e560048036038101906101e091906125fe565b61064c565b6040516101f29190613281565b60405180910390f35b610203610700565b6040516102109190613281565b60405180910390f35b610233600480360381019061022e91906124f8565b61070d565b005b61024f600480360381019061024a9190612652565b61076d565b60405161025c9190613281565b60405180910390f35b61027f600480360381019061027a91906124f8565b610812565b005b61029b600480360381019061029691906126e0565b610832565b6040516102a89190613281565b60405180910390f35b6102cb60048036038101906102c691906126e0565b6108c9565b6040516102d89190612f5d565b60405180910390f35b6102fb60048036038101906102f69190612493565b61097b565b6040516103089190613281565b60405180910390f35b610319610a33565b005b610323610abb565b6040516103309190612f5d565b60405180910390f35b610341610ae5565b60405161034e9190612fdf565b60405180910390f35b610371600480360381019061036c91906125c2565b610b77565b005b61038d60048036038101906103889190612547565b610b8d565b005b6103a960048036038101906103a491906126e0565b610bef565b6040516103b69190612fdf565b60405180910390f35b6103d960048036038101906103d491906124bc565b610c01565b6040516103e69190612fc4565b60405180910390f35b61040960048036038101906104049190612493565b610c95565b005b600061041682610d8d565b9050919050565b60606000805461042c906134e1565b80601f0160208091040260200160405190810160405280929190818152602001828054610458906134e1565b80156104a55780601f1061047a576101008083540402835291602001916104a5565b820191906000526020600020905b81548152906001019060200180831161048857829003601f168201915b5050505050905090565b60006104ba82610e07565b6104f9576040517f08c379a00000000000000000000000000000000000000000000000000000000081526004016104f0906131a1565b60405180910390fd5b6004600083815260200190815260200160002060009054906101000a900473ffffffffffffffffffffffffffffffffffffffff169050919050565b600061053f826108c9565b90508073ffffffffffffffffffffffffffffffffffffffff168373ffffffffffffffffffffffffffffffffffffffff1614156105b0576040517f08c379a00000000000000000000000000000000000000000000000000000000081526004016105a790613221565b60405180910390fd5b8073ffffffffffffffffffffffffffffffffffffffff166105cf610e73565b73ffffffffffffffffffffffffffffffffffffffff1614806105fe57506105fd816105f8610e73565b610c01565b5b61063d576040517f08c379a0000000000000000000000000000000000000000000000000000000008152600401610634906130e1565b60405180910390fd5b6106478383610e7b565b505050565b6000610656610e73565b73ffffffffffffffffffffffffffffffffffffffff16610674610abb565b73ffffffffffffffffffffffffffffffffffffffff16146106ca576040517f08c379a00000000000000000000000000000000000000000000000000000000081526004016106c1906131c1565b60405180910390fd5b6106d4600c610f34565b60006106e0600c610f4a565b90506106ec8482610f58565b6106f68184611126565b8091505092915050565b6000600980549050905090565b61071e610718610e73565b8261119a565b61075d576040517f08c379a000000000000000000000000000000000000000000000000000000000815260040161075490613241565b60405180910390fd5b610768838383611278565b505050565b60006107788361097b565b82106107b9576040517f08c379a00000000000000000000000000000000000000000000000000000000081526004016107b090613001565b60405180910390fd5b600760008473ffffffffffffffffffffffffffffffffffffffff1673ffffffffffffffffffffffffffffffffffffffff168152602001908152602001600020600083815260200190815260200160002054905092915050565b61082d83838360405180602001604052806000815250610b8d565b505050565b600061083c610700565b821061087d576040517f08c379a000000000000000000000000000000000000000000000000000000000815260040161087490613261565b60405180910390fd5b600982815481106108b7577f4e487b7100000000000000000000000000000000000000000000000000000000600052603260045260246000fd5b90600052602060002001549050919050565b6000806002600084815260200190815260200160002060009054906101000a900473ffffffffffffffffffffffffffffffffffffffff169050600073ffffffffffffffffffffffffffffffffffffffff168173ffffffffffffffffffffffffffffffffffffffff161415610972576040517f08c379a000000000000000000000000000000000000000000000000000000000815260040161096990613121565b60405180910390fd5b80915050919050565b60008073ffffffffffffffffffffffffffffffffffffffff168273ffffffffffffffffffffffffffffffffffffffff1614156109ec576040517f08c379a00000000000000000000000000000000000000000000000000000000081526004016109e390613101565b60405180910390fd5b600360008373ffffffffffffffffffffffffffffffffffffffff1673ffffffffffffffffffffffffffffffffffffffff168152602001908152602001600020549050919050565b610a3b610e73565b73ffffffffffffffffffffffffffffffffffffffff16610a59610abb565b73ffffffffffffffffffffffffffffffffffffffff1614610aaf576040517f08c379a0000000000000000000000000000000000000000000000000000000008152600401610aa6906131c1565b60405180910390fd5b610ab960006114d4565b565b6000600b60009054906101000a900473ffffffffffffffffffffffffffffffffffffffff16905090565b606060018054610af4906134e1565b80601f0160208091040260200160405190810160405280929190818152602001828054610b20906134e1565b8015610b6d5780601f10610b4257610100808354040283529160200191610b6d565b820191906000526020600020905b815481529060010190602001808311610b5057829003601f168201915b5050505050905090565b610b89610b82610e73565b838361159a565b5050565b610b9e610b98610e73565b8361119a565b610bdd576040517f08c379a0000000000000000000000000000000000000000000000000000000008152600401610bd490613241565b60405180910390fd5b610be984848484611707565b50505050565b6060610bfa82611763565b9050919050565b6000600560008473ffffffffffffffffffffffffffffffffffffffff1673ffffffffffffffffffffffffffffffffffffffff16815260200190815260200160002060008373ffffffffffffffffffffffffffffffffffffffff1673ffffffffffffffffffffffffffffffffffffffff16815260200190815260200160002060009054906101000a900460ff16905092915050565b610c9d610e73565b73ffffffffffffffffffffffffffffffffffffffff16610cbb610abb565b73ffffffffffffffffffffffffffffffffffffffff1614610d11576040517f08c379a0000000000000000000000000000000000000000000000000000000008152600401610d08906131c1565b60405180910390fd5b600073ffffffffffffffffffffffffffffffffffffffff168173ffffffffffffffffffffffffffffffffffffffff161415610d81576040517f08c379a0000000000000000000000000000000000000000000000000000000008152600401610d7890613041565b60405180910390fd5b610d8a816114d4565b50565b60007f780e9d63000000000000000000000000000000000000000000000000000000007bffffffffffffffffffffffffffffffffffffffffffffffffffffffff1916827bffffffffffffffffffffffffffffffffffffffffffffffffffffffff19161480610e005750610dff826118b5565b5b9050919050565b60008073ffffffffffffffffffffffffffffffffffffffff166002600084815260200190815260200160002060009054906101000a900473ffffffffffffffffffffffffffffffffffffffff1673ffffffffffffffffffffffffffffffffffffffff1614159050919050565b600033905090565b816004600083815260200190815260200160002060006101000a81548173ffffffffffffffffffffffffffffffffffffffff021916908373ffffffffffffffffffffffffffffffffffffffff160217905550808273ffffffffffffffffffffffffffffffffffffffff16610eee836108c9565b73ffffffffffffffffffffffffffffffffffffffff167f8c5be1e5ebec7d5bd14f71427d1e84f3dd0314c0f7b2291e5b200ac8c7c3b92560405160405180910390a45050565b6001816000016000828254019250508190555050565b600081600001549050919050565b600073ffffffffffffffffffffffffffffffffffffffff168273ffffffffffffffffffffffffffffffffffffffff161415610fc8576040517f08c379a0000000000000000000000000000000000000000000000000000000008152600401610fbf90613161565b60405180910390fd5b610fd181610e07565b15611011576040517f08c379a000000000000000000000000000000000000000000000000000000000815260040161100890613061565b60405180910390fd5b61101d60008383611997565b6001600360008473ffffffffffffffffffffffffffffffffffffffff1673ffffffffffffffffffffffffffffffffffffffff168152602001908152602001600020600082825461106d9190613370565b92505081905550816002600083815260200190815260200160002060006101000a81548173ffffffffffffffffffffffffffffffffffffffff021916908373ffffffffffffffffffffffffffffffffffffffff160217905550808273ffffffffffffffffffffffffffffffffffffffff16600073ffffffffffffffffffffffffffffffffffffffff167fddf252ad1be2c89b69c2b068fc378daa952ba7f163c4a11628f55a4df523b3ef60405160405180910390a45050565b61112f82610e07565b61116e576040517f08c379a000000000000000000000000000000000000000000000000000000000815260040161116590613141565b60405180910390fd5b806006600084815260200190815260200160002090805190602001906111959291906122b7565b505050565b60006111a582610e07565b6111e4576040517f08c379a00000000000000000000000000000000000000000000000000000000081526004016111db906130c1565b60405180910390fd5b60006111ef836108c9565b90508073ffffffffffffffffffffffffffffffffffffffff168473ffffffffffffffffffffffffffffffffffffffff16148061125e57508373ffffffffffffffffffffffffffffffffffffffff16611246846104af565b73ffffffffffffffffffffffffffffffffffffffff16145b8061126f575061126e8185610c01565b5b91505092915050565b8273ffffffffffffffffffffffffffffffffffffffff16611298826108c9565b73ffffffffffffffffffffffffffffffffffffffff16146112ee576040517f08c379a00000000000000000000000000000000000000000000000000000000081526004016112e5906131e1565b60405180910390fd5b600073ffffffffffffffffffffffffffffffffffffffff168273ffffffffffffffffffffffffffffffffffffffff16141561135e576040517f08c379a000000000000000000000000000000000000000000000000000000000815260040161135590613081565b60405180910390fd5b611369838383611997565b611374600082610e7b565b6001600360008573ffffffffffffffffffffffffffffffffffffffff1673ffffffffffffffffffffffffffffffffffffffff16815260200190815260200160002060008282546113c491906133f7565b925050819055506001600360008473ffffffffffffffffffffffffffffffffffffffff1673ffffffffffffffffffffffffffffffffffffffff168152602001908152602001600020600082825461141b9190613370565b92505081905550816002600083815260200190815260200160002060006101000a81548173ffffffffffffffffffffffffffffffffffffffff021916908373ffffffffffffffffffffffffffffffffffffffff160217905550808273ffffffffffffffffffffffffffffffffffffffff168473ffffffffffffffffffffffffffffffffffffffff167fddf252ad1be2c89b69c2b068fc378daa952ba7f163c4a11628f55a4df523b3ef60405160405180910390a4505050565b6000600b60009054906101000a900473ffffffffffffffffffffffffffffffffffffffff16905081600b60006101000a81548173ffffffffffffffffffffffffffffffffffffffff021916908373ffffffffffffffffffffffffffffffffffffffff1602179055508173ffffffffffffffffffffffffffffffffffffffff168173ffffffffffffffffffffffffffffffffffffffff167f8be0079c531659141344cd1fd0a4f28419497f9722a3daafe3b4186f6b6457e060405160405180910390a35050565b8173ffffffffffffffffffffffffffffffffffffffff168373ffffffffffffffffffffffffffffffffffffffff161415611609576040517f08c379a0000000000000000000000000000000000000000000000000000000008152600401611600906130a1565b60405180910390fd5b80600560008573ffffffffffffffffffffffffffffffffffffffff1673ffffffffffffffffffffffffffffffffffffffff16815260200190815260200160002060008473ffffffffffffffffffffffffffffffffffffffff1673ffffffffffffffffffffffffffffffffffffffff16815260200190815260200160002060006101000a81548160ff0219169083151502179055508173ffffffffffffffffffffffffffffffffffffffff168373ffffffffffffffffffffffffffffffffffffffff167f17307eab39ab6107e8899845ad3d59bd9653f200f220920489ca2b5937696c31836040516116fa9190612fc4565b60405180910390a3505050565b611712848484611278565b61171e848484846119a7565b61175d576040517f08c379a000000000000000000000000000000000000000000000000000000000815260040161175490613021565b60405180910390fd5b50505050565b606061176e82610e07565b6117ad576040517f08c379a00000000000000000000000000000000000000000000000000000000081526004016117a490613181565b60405180910390fd5b60006006600084815260200190815260200160002080546117cd906134e1565b80601f01602080910402602001604051908101604052809291908181526020018280546117f9906134e1565b80156118465780601f1061181b57610100808354040283529160200191611846565b820191906000526020600020905b81548152906001019060200180831161182957829003601f168201915b505050505090506000611857611b3e565b905060008151141561186d5781925050506118b0565b6000825111156118a257808260405160200161188a929190612f39565b604051602081830303815290604052925050506118b0565b6118ab84611b55565b925050505b919050565b60007f80ac58cd000000000000000000000000000000000000000000000000000000007bffffffffffffffffffffffffffffffffffffffffffffffffffffffff1916827bffffffffffffffffffffffffffffffffffffffffffffffffffffffff1916148061198057507f5b5e139f000000000000000000000000000000000000000000000000000000007bffffffffffffffffffffffffffffffffffffffffffffffffffffffff1916827bffffffffffffffffffffffffffffffffffffffffffffffffffffffff1916145b80611990575061198f82611bfc565b5b9050919050565b6119a2838383611c66565b505050565b60006119c88473ffffffffffffffffffffffffffffffffffffffff16611d7a565b15611b31578373ffffffffffffffffffffffffffffffffffffffff1663150b7a026119f1610e73565b8786866040518563ffffffff1660e01b8152600401611a139493929190612f78565b602060405180830381600087803b158015611a2d57600080fd5b505af1925050508015611a5e57506040513d601f19601f82011682018060405250810190611a5b91906126b7565b60015b611ae1573d8060008114611a8e576040519150601f19603f3d011682016040523d82523d6000602084013e611a93565b606091505b50600081511415611ad9576040517f08c379a0000000000000000000000000000000000000000000000000000000008152600401611ad090613021565b60405180910390fd5b805181602001fd5b63150b7a0260e01b7bffffffffffffffffffffffffffffffffffffffffffffffffffffffff1916817bffffffffffffffffffffffffffffffffffffffffffffffffffffffff191614915050611b36565b600190505b949350505050565b606060405180602001604052806000815250905090565b6060611b6082610e07565b611b9f576040517f08c379a0000000000000000000000000000000000000000000000000000000008152600401611b9690613201565b60405180910390fd5b6000611ba9611b3e565b90506000815111611bc95760405180602001604052806000815250611bf4565b80611bd384611d8d565b604051602001611be4929190612f39565b6040516020818303038152906040525b915050919050565b60007f01ffc9a7000000000000000000000000000000000000000000000000000000007bffffffffffffffffffffffffffffffffffffffffffffffffffffffff1916827bffffffffffffffffffffffffffffffffffffffffffffffffffffffff1916149050919050565b611c71838383611f3a565b600073ffffffffffffffffffffffffffffffffffffffff168373ffffffffffffffffffffffffffffffffffffffff161415611cb457611caf81611f3f565b611cf3565b8173ffffffffffffffffffffffffffffffffffffffff168373ffffffffffffffffffffffffffffffffffffffff1614611cf257611cf18382611f88565b5b5b600073ffffffffffffffffffffffffffffffffffffffff168273ffffffffffffffffffffffffffffffffffffffff161415611d3657611d31816120f5565b611d75565b8273ffffffffffffffffffffffffffffffffffffffff168273ffffffffffffffffffffffffffffffffffffffff1614611d7457611d738282612238565b5b5b505050565b600080823b905060008111915050919050565b60606000821415611dd5576040518060400160405280600181526020017f30000000000000000000000000000000000000000000000000000000000000008152509050611f35565b600082905060005b60008214611e07578080611df090613513565b915050600a82611e0091906133c6565b9150611ddd565b60008167ffffffffffffffff811115611e49577f4e487b7100000000000000000000000000000000000000000000000000000000600052604160045260246000fd5b6040519080825280601f01601f191660200182016040528015611e7b5781602001600182028036833780820191505090505b5090505b60008514611f2e57600182611e9491906133f7565b9150600a85611ea3919061355c565b6030611eaf9190613370565b60f81b818381518110611eeb577f4e487b7100000000000000000000000000000000000000000000000000000000600052603260045260246000fd5b60200101907effffffffffffffffffffffffffffffffffffffffffffffffffffffffffffff1916908160001a905350600a85611f2791906133c6565b9450611e7f565b8093505050505b919050565b505050565b600980549050600a600083815260200190815260200160002081905550600981908060018154018082558091505060019003906000526020600020016000909190919091505550565b60006001611f958461097b565b611f9f91906133f7565b9050600060086000848152602001908152602001600020549050818114612084576000600760008673ffffffffffffffffffffffffffffffffffffffff1673ffffffffffffffffffffffffffffffffffffffff168152602001908152602001600020600084815260200190815260200160002054905080600760008773ffffffffffffffffffffffffffffffffffffffff1673ffffffffffffffffffffffffffffffffffffffff168152602001908152602001600020600084815260200190815260200160002081905550816008600083815260200190815260200160002081905550505b6008600084815260200190815260200160002060009055600760008573ffffffffffffffffffffffffffffffffffffffff1673ffffffffffffffffffffffffffffffffffffffff16815260200190815260200160002060008381526020019081526020016000206000905550505050565b6000600160098054905061210991906133f7565b90506000600a600084815260200190815260200160002054905060006009838154811061215f577f4e487b7100000000000000000000000000000000000000000000000000000000600052603260045260246000fd5b9060005260206000200154905080600983815481106121a7577f4e487b7100000000000000000000000000000000000000000000000000000000600052603260045260246000fd5b906000526020600020018190555081600a600083815260200190815260200160002081905550600a600085815260200190815260200160002060009055600980548061221c577f4e487b7100000000000000000000000000000000000000000000000000000000600052603160045260246000fd5b6001900381819060005260206000200160009055905550505050565b60006122438361097b565b905081600760008573ffffffffffffffffffffffffffffffffffffffff1673ffffffffffffffffffffffffffffffffffffffff168152602001908152602001600020600083815260200190815260200160002081905550806008600084815260200190815260200160002081905550505050565b8280546122c3906134e1565b90600052602060002090601f0160209004810192826122e5576000855561232c565b82601f106122fe57805160ff191683800117855561232c565b8280016001018555821561232c579182015b8281111561232b578251825591602001919060010190612310565b5b509050612339919061233d565b5090565b5b8082111561235657600081600090555060010161233e565b5090565b600061236d612368846132cd565b61329c565b90508281526020810184848401111561238557600080fd5b61239084828561349f565b509392505050565b60006123ab6123a6846132fd565b61329c565b9050828152602081018484840111156123c357600080fd5b6123ce84828561349f565b509392505050565b6000813590506123e58161365a565b92915050565b6000813590506123fa81613671565b92915050565b60008135905061240f81613688565b92915050565b60008151905061242481613688565b92915050565b600082601f83011261243b57600080fd5b813561244b84826020860161235a565b91505092915050565b600082601f83011261246557600080fd5b8135612475848260208601612398565b91505092915050565b60008135905061248d8161369f565b92915050565b6000602082840312156124a557600080fd5b60006124b3848285016123d6565b91505092915050565b600080604083850312156124cf57600080fd5b60006124dd858286016123d6565b92505060206124ee858286016123d6565b9150509250929050565b60008060006060848603121561250d57600080fd5b600061251b868287016123d6565b935050602061252c868287016123d6565b925050604061253d8682870161247e565b9150509250925092565b6000806000806080858703121561255d57600080fd5b600061256b878288016123d6565b945050602061257c878288016123d6565b935050604061258d8782880161247e565b925050606085013567ffffffffffffffff8111156125aa57600080fd5b6125b68782880161242a565b91505092959194509250565b600080604083850312156125d557600080fd5b60006125e3858286016123d6565b92505060206125f4858286016123eb565b9150509250929050565b6000806040838503121561261157600080fd5b600061261f858286016123d6565b925050602083013567ffffffffffffffff81111561263c57600080fd5b61264885828601612454565b9150509250929050565b6000806040838503121561266557600080fd5b6000612673858286016123d6565b92505060206126848582860161247e565b9150509250929050565b6000602082840312156126a057600080fd5b60006126ae84828501612400565b91505092915050565b6000602082840312156126c957600080fd5b60006126d784828501612415565b91505092915050565b6000602082840312156126f257600080fd5b60006127008482850161247e565b91505092915050565b6127128161342b565b82525050565b6127218161343d565b82525050565b60006127328261332d565b61273c8185613343565b935061274c8185602086016134ae565b61275581613649565b840191505092915050565b600061276b82613338565b6127758185613354565b93506127858185602086016134ae565b61278e81613649565b840191505092915050565b60006127a482613338565b6127ae8185613365565b93506127be8185602086016134ae565b80840191505092915050565b60006127d7602b83613354565b91507f455243373231456e756d657261626c653a206f776e657220696e646578206f7560008301527f74206f6620626f756e64730000000000000000000000000000000000000000006020830152604082019050919050565b600061283d603283613354565b91507f4552433732313a207472616e7366657220746f206e6f6e20455243373231526560008301527f63656976657220696d706c656d656e74657200000000000000000000000000006020830152604082019050919050565b60006128a3602683613354565b91507f4f776e61626c653a206e6577206f776e657220697320746865207a65726f206160008301527f64647265737300000000000000000000000000000000000000000000000000006020830152604082019050919050565b6000612909601c83613354565b91507f4552433732313a20746f6b656e20616c7265616479206d696e746564000000006000830152602082019050919050565b6000612949602483613354565b91507f4552433732313a207472616e7366657220746f20746865207a65726f2061646460008301527f72657373000000000000000000000000000000000000000000000000000000006020830152604082019050919050565b60006129af601983613354565b91507f4552433732313a20617070726f766520746f2063616c6c6572000000000000006000830152602082019050919050565b60006129ef602c83613354565b91507f4552433732313a206f70657261746f7220717565727920666f72206e6f6e657860008301527f697374656e7420746f6b656e00000000000000000000000000000000000000006020830152604082019050919050565b6000612a55603883613354565b91507f4552433732313a20617070726f76652063616c6c6572206973206e6f74206f7760008301527f6e6572206e6f7220617070726f76656420666f7220616c6c00000000000000006020830152604082019050919050565b6000612abb602a83613354565b91507f4552433732313a2062616c616e636520717565727920666f7220746865207a6560008301527f726f2061646472657373000000000000000000000000000000000000000000006020830152604082019050919050565b6000612b21602983613354565b91507f4552433732313a206f776e657220717565727920666f72206e6f6e657869737460008301527f656e7420746f6b656e00000000000000000000000000000000000000000000006020830152604082019050919050565b6000612b87602e83613354565b91507f45524337323155524953746f726167653a2055524920736574206f66206e6f6e60008301527f6578697374656e7420746f6b656e0000000000000000000000000000000000006020830152604082019050919050565b6000612bed602083613354565b91507f4552433732313a206d696e7420746f20746865207a65726f20616464726573736000830152602082019050919050565b6000612c2d603183613354565b91507f45524337323155524953746f726167653a2055524920717565727920666f722060008301527f6e6f6e6578697374656e7420746f6b656e0000000000000000000000000000006020830152604082019050919050565b6000612c93602c83613354565b91507f4552433732313a20617070726f76656420717565727920666f72206e6f6e657860008301527f697374656e7420746f6b656e00000000000000000000000000000000000000006020830152604082019050919050565b6000612cf9602083613354565b91507f4f776e61626c653a2063616c6c6572206973206e6f7420746865206f776e65726000830152602082019050919050565b6000612d39602983613354565b91507f4552433732313a207472616e73666572206f6620746f6b656e2074686174206960008301527f73206e6f74206f776e00000000000000000000000000000000000000000000006020830152604082019050919050565b6000612d9f602f83613354565b91507f4552433732314d657461646174613a2055524920717565727920666f72206e6f60008301527f6e6578697374656e7420746f6b656e00000000000000000000000000000000006020830152604082019050919050565b6000612e05602183613354565b91507f4552433732313a20617070726f76616c20746f2063757272656e74206f776e6560008301527f72000000000000000000000000000000000000000000000000000000000000006020830152604082019050919050565b6000612e6b603183613354565b91507f4552433732313a207472616e736665722063616c6c6572206973206e6f74206f60008301527f776e6572206e6f7220617070726f7665640000000000000000000000000000006020830152604082019050919050565b6000612ed1602c83613354565b91507f455243373231456e756d657261626c653a20676c6f62616c20696e646578206f60008301527f7574206f6620626f756e647300000000000000000000000000000000000000006020830152604082019050919050565b612f3381613495565b82525050565b6000612f458285612799565b9150612f518284612799565b91508190509392505050565b6000602082019050612f726000830184612709565b92915050565b6000608082019050612f8d6000830187612709565b612f9a6020830186612709565b612fa76040830185612f2a565b8181036060830152612fb98184612727565b905095945050505050565b6000602082019050612fd96000830184612718565b92915050565b60006020820190508181036000830152612ff98184612760565b905092915050565b6000602082019050818103600083015261301a816127ca565b9050919050565b6000602082019050818103600083015261303a81612830565b9050919050565b6000602082019050818103600083015261305a81612896565b9050919050565b6000602082019050818103600083015261307a816128fc565b9050919050565b6000602082019050818103600083015261309a8161293c565b9050919050565b600060208201905081810360008301526130ba816129a2565b9050919050565b600060208201905081810360008301526130da816129e2565b9050919050565b600060208201905081810360008301526130fa81612a48565b9050919050565b6000602082019050818103600083015261311a81612aae565b9050919050565b6000602082019050818103600083015261313a81612b14565b9050919050565b6000602082019050818103600083015261315a81612b7a565b9050919050565b6000602082019050818103600083015261317a81612be0565b9050919050565b6000602082019050818103600083015261319a81612c20565b9050919050565b600060208201905081810360008301526131ba81612c86565b9050919050565b600060208201905081810360008301526131da81612cec565b9050919050565b600060208201905081810360008301526131fa81612d2c565b9050919050565b6000602082019050818103600083015261321a81612d92565b9050919050565b6000602082019050818103600083015261323a81612df8565b9050919050565b6000602082019050818103600083015261325a81612e5e565b9050919050565b6000602082019050818103600083015261327a81612ec4565b9050919050565b60006020820190506132966000830184612f2a565b92915050565b6000604051905081810181811067ffffffffffffffff821117156132c3576132c261361a565b5b8060405250919050565b600067ffffffffffffffff8211156132e8576132e761361a565b5b601f19601f8301169050602081019050919050565b600067ffffffffffffffff8211156133185761331761361a565b5b601f19601f8301169050602081019050919050565b600081519050919050565b600081519050919050565b600082825260208201905092915050565b600082825260208201905092915050565b600081905092915050565b600061337b82613495565b915061338683613495565b9250827fffffffffffffffffffffffffffffffffffffffffffffffffffffffffffffffff038211156133bb576133ba61358d565b5b828201905092915050565b60006133d182613495565b91506133dc83613495565b9250826133ec576133eb6135bc565b5b828204905092915050565b600061340282613495565b915061340d83613495565b9250828210156134205761341f61358d565b5b828203905092915050565b600061343682613475565b9050919050565b60008115159050919050565b60007fffffffff0000000000000000000000000000000000000000000000000000000082169050919050565b600073ffffffffffffffffffffffffffffffffffffffff82169050919050565b6000819050919050565b82818337600083830152505050565b60005b838110156134cc5780820151818401526020810190506134b1565b838111156134db576000848401525b50505050565b600060028204905060018216806134f957607f821691505b6020821081141561350d5761350c6135eb565b5b50919050565b600061351e82613495565b91507fffffffffffffffffffffffffffffffffffffffffffffffffffffffffffffffff8214156135515761355061358d565b5b600182019050919050565b600061356782613495565b915061357283613495565b925082613582576135816135bc565b5b828206905092915050565b7f4e487b7100000000000000000000000000000000000000000000000000000000600052601160045260246000fd5b7f4e487b7100000000000000000000000000000000000000000000000000000000600052601260045260246000fd5b7f4e487b7100000000000000000000000000000000000000000000000000000000600052602260045260246000fd5b7f4e487b7100000000000000000000000000000000000000000000000000000000600052604160045260246000fd5b6000601f19601f8301169050919050565b6136638161342b565b811461366e57600080fd5b50565b61367a8161343d565b811461368557600080fd5b50565b61369181613449565b811461369c57600080fd5b50565b6136a881613495565b81146136b357600080fd5b5056fea26469706673582212207fd455f52cd5dfdd95ae68a7766d729f617f69f587b3bf1702120f168fc71bed64736f6c63430008000033",
  "linkReferences": {},
  "deployedLinkReferences": {}
}