{
  "_format": "hh-sol-artifact-1",
  "contractName": "Voting",
  "sourceName": "contracts/Voting.sol",
  "abi": [
    {
      "inputs": [],
      "stateMutability": "nonpayable",
      "type": "constructor"
    },
    {
      "inputs": [
        {
          "internalType": "string",
          "name": "_prompt",
          "type": "string"
        },
        {
          "internalType": "string[]",
          "name": "_options",
          "type": "string[]"
        },
        {
          "internalType": "uint256",
          "name": "_startline",
          "type": "uint256"
        },
        {
          "internalType": "uint256",
          "name": "_deadline",
          "type": "uint256"
        }
      ],
      "name": "createTopic",
      "outputs": [],
      "stateMutability": "nonpayable",
      "type": "function"
    },
    {
      "inputs": [
        {
          "internalType": "uint256",
          "name": "topic_id",
          "type": "uint256"
        }
      ],
      "name": "distributeReputation",
      "outputs": [
        {
          "internalType": "bool",
          "name": "",
          "type": "bool"
        }
      ],
      "stateMutability": "nonpayable",
      "type": "function"
    },
    {
      "inputs": [],
      "name": "getRecentTopicPrompt",
      "outputs": [
        {
          "internalType": "string",
          "name": "",
          "type": "string"
        }
      ],
      "stateMutability": "view",
      "type": "function"
    },
    {
      "inputs": [
        {
          "internalType": "uint256",
          "name": "topicId",
          "type": "uint256"
        }
      ],
      "name": "getTopicPrompt",
      "outputs": [
        {
          "internalType": "string",
          "name": "",
          "type": "string"
        }
      ],
      "stateMutability": "view",
      "type": "function"
    },
    {
      "inputs": [],
      "name": "nextTopicNumber",
      "outputs": [
        {
          "internalType": "uint256",
          "name": "",
          "type": "uint256"
        }
      ],
      "stateMutability": "view",
      "type": "function"
    },
    {
      "inputs": [
        {
          "internalType": "uint256",
          "name": "",
          "type": "uint256"
        }
      ],
      "name": "topics",
      "outputs": [
        {
          "internalType": "string",
          "name": "prompt",
          "type": "string"
        },
        {
          "internalType": "address",
          "name": "proposer",
          "type": "address"
        },
        {
          "internalType": "enum Voting.State",
          "name": "state",
          "type": "uint8"
        },
        {
          "internalType": "uint256",
          "name": "startline",
          "type": "uint256"
        },
        {
          "internalType": "uint256",
          "name": "deadline",
          "type": "uint256"
        }
      ],
      "stateMutability": "view",
      "type": "function"
    },
    {
      "inputs": [
        {
          "internalType": "uint256",
          "name": "topic_id",
          "type": "uint256"
        },
        {
          "internalType": "string",
          "name": "option",
          "type": "string"
        }
      ],
      "name": "vote",
      "outputs": [
        {
          "internalType": "bool",
          "name": "",
          "type": "bool"
        }
      ],
      "stateMutability": "nonpayable",
      "type": "function"
    }
  ],
  "bytecode": "0x608060405234801561001057600080fd5b506000600181905550611b92806100286000396000f3fe608060405234801561001057600080fd5b506004361061007d5760003560e01c806354feee431161005b57806354feee4314610116578063751ef3af14610134578063caeb4ec214610152578063da92dd02146101825761007d565b806318d9adab1461008257806324108475146100b657806331a4b287146100e6575b600080fd5b61009c600480360381019061009791906112b8565b61019e565b6040516100ad9594939291906116e6565b60405180910390f35b6100d060048036038101906100cb91906112e1565b610289565b6040516100dd91906116a9565b60405180910390f35b61010060048036038101906100fb91906112b8565b61059d565b60405161010d91906116c4565b60405180910390f35b61011e610650565b60405161012b91906116c4565b60405180910390f35b61013c610703565b6040516101499190611800565b60405180910390f35b61016c600480360381019061016791906112b8565b610709565b60405161017991906116a9565b60405180910390f35b61019c60048036038101906101979190611225565b610862565b005b60006020528060005260406000206000915090508060000180546101c1906119e9565b80601f01602080910402602001604051908101604052809291908181526020018280546101ed906119e9565b801561023a5780601f1061020f5761010080835404028352916020019161023a565b820191906000526020600020905b81548152906001019060200180831161021d57829003601f168201915b5050505050908060020160009054906101000a900473ffffffffffffffffffffffffffffffffffffffff16908060020160149054906101000a900460ff16908060030154908060040154905085565b600060015483106102cf576040517f08c379a00000000000000000000000000000000000000000000000000000000081526004016102c690611760565b60405180910390fd5b6000806000858152602001908152602001600020905080600401544211156103455760028160020160146101000a81548160ff0219169083600381111561033f577f4e487b7100000000000000000000000000000000000000000000000000000000600052602160045260246000fd5b02179055505b6001600381111561037f577f4e487b7100000000000000000000000000000000000000000000000000000000600052602160045260246000fd5b8160020160149054906101000a900460ff1660038111156103c9577f4e487b7100000000000000000000000000000000000000000000000000000000600052602160045260246000fd5b14610409576040517f08c379a0000000000000000000000000000000000000000000000000000000008152600401610400906117e0565b60405180910390fd5b60405160200161041890611694565b604051602081830303815290604052805190602001208160060160003373ffffffffffffffffffffffffffffffffffffffff1673ffffffffffffffffffffffffffffffffffffffff16815260200190815260200160002060405160200161047f919061167d565b604051602081830303815290604052805190602001201461049f57600080fd5b828160060160003373ffffffffffffffffffffffffffffffffffffffff1673ffffffffffffffffffffffffffffffffffffffff16815260200190815260200160002090805190602001906104f4929190610fba565b5080600501339080600181540180825580915050600190039060005260206000200160009091909190916101000a81548173ffffffffffffffffffffffffffffffffffffffff021916908373ffffffffffffffffffffffffffffffffffffffff1602179055506001816007018460405161056e9190611666565b9081526020016040518091039020600082825461058b91906118e4565b92505081905550600191505092915050565b60606000829050600080600083815260200190815260200160002090508060000180546105c9906119e9565b80601f01602080910402602001604051908101604052809291908181526020018280546105f5906119e9565b80156106425780601f1061061757610100808354040283529160200191610642565b820191906000526020600020905b81548152906001019060200180831161062557829003601f168201915b505050505092505050919050565b6060600060015490506000806000838152602001908152602001600020905080600001805461067e906119e9565b80601f01602080910402602001604051908101604052809291908181526020018280546106aa906119e9565b80156106f75780601f106106cc576101008083540402835291602001916106f7565b820191906000526020600020905b8154815290600101906020018083116106da57829003601f168201915b50505050509250505090565b60015481565b60008061071583610a40565b905060008160405160200161072a9190611666565b6040516020818303038152906040528051906020012090506000806000868152602001908152602001600020905060005b81600501805490508110156108555760008260050182815481106107a8577f4e487b7100000000000000000000000000000000000000000000000000000000600052603260045260246000fd5b9060005260206000200160009054906101000a900473ffffffffffffffffffffffffffffffffffffffff16905060008360060160008373ffffffffffffffffffffffffffffffffffffffff1673ffffffffffffffffffffffffffffffffffffffff168152602001908152602001600020604051602001610828919061167d565b6040516020818303038152906040528051906020012090505050808061084d90611a1b565b91505061075b565b5060019350505050919050565b8082106108a4576040517f08c379a000000000000000000000000000000000000000000000000000000000815260040161089b906117c0565b60405180910390fd5b600080600060015481526020019081526020016000209050848160000190805190602001906108d4929190610fba565b50838160010190805190602001906108ed929190611040565b50338160020160006101000a81548173ffffffffffffffffffffffffffffffffffffffff021916908373ffffffffffffffffffffffffffffffffffffffff16021790555082816003018190555081816004018190555061094e600154610cd2565b6001600081548092919061096190611a1b565b91905055506109a46040518060400160405280601881526020017f746f706963206372656174656420772070726f6d70743a200000000000000000815250610ef8565b610a398160000180546109b6906119e9565b80601f01602080910402602001604051908101604052809291908181526020018280546109e2906119e9565b8015610a2f5780601f10610a0457610100808354040283529160200191610a2f565b820191906000526020600020905b815481529060010190602001808311610a1257829003601f168201915b5050505050610ef8565b5050505050565b60606001548210610a86576040517f08c379a0000000000000000000000000000000000000000000000000000000008152600401610a7d906117a0565b60405180910390fd5b60008060008481526020019081526020016000209050610aa583610cd2565b60026003811115610adf577f4e487b7100000000000000000000000000000000000000000000000000000000600052602160045260246000fd5b8160020160149054906101000a900460ff166003811115610b29577f4e487b7100000000000000000000000000000000000000000000000000000000600052602160045260246000fd5b14610b69576040517f08c379a0000000000000000000000000000000000000000000000000000000008152600401610b6090611780565b60405180910390fd5b60006040518060200160405280600081525090506000805b8360010180549050811015610cc6576000846001018281548110610bce577f4e487b7100000000000000000000000000000000000000000000000000000000600052603260045260246000fd5b906000526020600020018054610be3906119e9565b80601f0160208091040260200160405190810160405280929190818152602001828054610c0f906119e9565b8015610c5c5780601f10610c3157610100808354040283529160200191610c5c565b820191906000526020600020905b815481529060010190602001808311610c3f57829003601f168201915b50505050509050828560070182604051610c769190611666565b9081526020016040518091039020541115610cb2578093508460070181604051610ca09190611666565b90815260200160405180910390205492505b508080610cbe90611a1b565b915050610b81565b50819350505050919050565b60018054610ce091906118e4565b8110610d21576040517f08c379a0000000000000000000000000000000000000000000000000000000008152600401610d1890611740565b60405180910390fd5b60008060008381526020019081526020016000209050600380811115610d70577f4e487b7100000000000000000000000000000000000000000000000000000000600052602160045260246000fd5b8160020160149054906101000a900460ff166003811115610dba577f4e487b7100000000000000000000000000000000000000000000000000000000600052602160045260246000fd5b1415610dc65750610ef5565b8060030154421015610e2a5760008160020160146101000a81548160ff02191690836003811115610e20577f4e487b7100000000000000000000000000000000000000000000000000000000600052602160045260246000fd5b0217905550610ef3565b80600301544210158015610e415750806004015442105b15610e9e5760018160020160146101000a81548160ff02191690836003811115610e94577f4e487b7100000000000000000000000000000000000000000000000000000000600052602160045260246000fd5b0217905550610ef2565b60028160020160146101000a81548160ff02191690836003811115610eec577f4e487b7100000000000000000000000000000000000000000000000000000000600052602160045260246000fd5b02179055505b5b505b50565b610f8e81604051602401610f0c91906116c4565b6040516020818303038152906040527f41304fac000000000000000000000000000000000000000000000000000000007bffffffffffffffffffffffffffffffffffffffffffffffffffffffff19166020820180517bffffffffffffffffffffffffffffffffffffffffffffffffffffffff8381831617835250505050610f91565b50565b60008151905060006a636f6e736f6c652e6c6f679050602083016000808483855afa5050505050565b828054610fc6906119e9565b90600052602060002090601f016020900481019282610fe8576000855561102f565b82601f1061100157805160ff191683800117855561102f565b8280016001018555821561102f579182015b8281111561102e578251825591602001919060010190611013565b5b50905061103c91906110a0565b5090565b82805482825590600052602060002090810192821561108f579160200282015b8281111561108e57825182908051906020019061107e929190610fba565b5091602001919060010190611060565b5b50905061109c91906110bd565b5090565b5b808211156110b95760008160009055506001016110a1565b5090565b5b808211156110dd57600081816110d491906110e1565b506001016110be565b5090565b5080546110ed906119e9565b6000825580601f106110ff575061111e565b601f01602090049060005260206000209081019061111d91906110a0565b5b50565b600061113461112f8461184c565b61181b565b9050808382526020820190508260005b85811015611174578135850161115a88826111e6565b845260208401935060208301925050600181019050611144565b5050509392505050565b600061119161118c84611878565b61181b565b9050828152602081018484840111156111a957600080fd5b6111b48482856119a7565b509392505050565b600082601f8301126111cd57600080fd5b81356111dd848260208601611121565b91505092915050565b600082601f8301126111f757600080fd5b813561120784826020860161117e565b91505092915050565b60008135905061121f81611b45565b92915050565b6000806000806080858703121561123b57600080fd5b600085013567ffffffffffffffff81111561125557600080fd5b611261878288016111e6565b945050602085013567ffffffffffffffff81111561127e57600080fd5b61128a878288016111bc565b935050604061129b87828801611210565b92505060606112ac87828801611210565b91505092959194509250565b6000602082840312156112ca57600080fd5b60006112d884828501611210565b91505092915050565b600080604083850312156112f457600080fd5b600061130285828601611210565b925050602083013567ffffffffffffffff81111561131f57600080fd5b61132b858286016111e6565b9150509250929050565b61133e8161193a565b82525050565b61134d8161194c565b82525050565b61135c81611995565b82525050565b600061136d826118bd565b61137781856118c8565b93506113878185602086016119b6565b61139081611b20565b840191505092915050565b60006113a6826118bd565b6113b081856118d9565b93506113c08185602086016119b6565b80840191505092915050565b600081546113d9816119e9565b6113e381866118d9565b945060018216600081146113fe576001811461140f57611442565b60ff19831686528186019350611442565b611418856118a8565b60005b8381101561143a5781548189015260018201915060208101905061141b565b838801955050505b50505092915050565b60006114586024836118c8565b91507f73657453746174653a20496e76616c696420746f70696320696420706173736560008301527f6420696e000000000000000000000000000000000000000000000000000000006020830152604082019050919050565b60006114be6020836118c8565b91507f766f74653a20496e76616c696420746f7069632069642070617373656420696e6000830152602082019050919050565b60006114fe6016836118c8565b91507f566f74696e67206973206e6f7420636f6d706c657465000000000000000000006000830152602082019050919050565b600061153e602c836118c8565b91507f67657457696e6e696e674f7074696f6e3a20496e76616c696420746f7069632060008301527f69642070617373656420696e00000000000000000000000000000000000000006020830152604082019050919050565b60006115a4602f836118c8565b91507f446561646c696e652063616e6e6f74206265206265666f726520766f74696e6760008301527f20706572696f64207374617274732100000000000000000000000000000000006020830152604082019050919050565b600061160a601e836118c8565b91507f566f7465206d7573742062652063757272656e746c792072756e6e696e6700006000830152602082019050919050565b600061164a6000836118d9565b9150600082019050919050565b6116608161198b565b82525050565b6000611672828461139b565b915081905092915050565b600061168982846113cc565b915081905092915050565b600061169f8261163d565b9150819050919050565b60006020820190506116be6000830184611344565b92915050565b600060208201905081810360008301526116de8184611362565b905092915050565b600060a08201905081810360008301526117008188611362565b905061170f6020830187611335565b61171c6040830186611353565b6117296060830185611657565b6117366080830184611657565b9695505050505050565b600060208201905081810360008301526117598161144b565b9050919050565b60006020820190508181036000830152611779816114b1565b9050919050565b60006020820190508181036000830152611799816114f1565b9050919050565b600060208201905081810360008301526117b981611531565b9050919050565b600060208201905081810360008301526117d981611597565b9050919050565b600060208201905081810360008301526117f9816115fd565b9050919050565b60006020820190506118156000830184611657565b92915050565b6000604051905081810181811067ffffffffffffffff8211171561184257611841611af1565b5b8060405250919050565b600067ffffffffffffffff82111561186757611866611af1565b5b602082029050602081019050919050565b600067ffffffffffffffff82111561189357611892611af1565b5b601f19601f8301169050602081019050919050565b60008190508160005260206000209050919050565b600081519050919050565b600082825260208201905092915050565b600081905092915050565b60006118ef8261198b565b91506118fa8361198b565b9250827fffffffffffffffffffffffffffffffffffffffffffffffffffffffffffffffff0382111561192f5761192e611a64565b5b828201905092915050565b60006119458261196b565b9050919050565b60008115159050919050565b600081905061196682611b31565b919050565b600073ffffffffffffffffffffffffffffffffffffffff82169050919050565b6000819050919050565b60006119a082611958565b9050919050565b82818337600083830152505050565b60005b838110156119d45780820151818401526020810190506119b9565b838111156119e3576000848401525b50505050565b60006002820490506001821680611a0157607f821691505b60208210811415611a1557611a14611ac2565b5b50919050565b6000611a268261198b565b91507fffffffffffffffffffffffffffffffffffffffffffffffffffffffffffffffff821415611a5957611a58611a64565b5b600182019050919050565b7f4e487b7100000000000000000000000000000000000000000000000000000000600052601160045260246000fd5b7f4e487b7100000000000000000000000000000000000000000000000000000000600052602160045260246000fd5b7f4e487b7100000000000000000000000000000000000000000000000000000000600052602260045260246000fd5b7f4e487b7100000000000000000000000000000000000000000000000000000000600052604160045260246000fd5b6000601f19601f8301169050919050565b60048110611b4257611b41611a93565b5b50565b611b4e8161198b565b8114611b5957600080fd5b5056fea264697066735822122057eefd3d3d43a5b09489a415042bc1df0604a4c699bc826b7ac2d688622e592a64736f6c63430008000033",
  "linkReferences": {},
  "deployedLinkReferences": {}
}